:020000040000FA
:2000000000500020E9000000E1000000C9000000E5000000E5000000E5000000000000002E
:20002000000000000000000000000000E5000000E500000000000000E5000000E50000002C
:2000400079250000E500000081FC0000E5000000011B00006D200000E5000000E500000048
:20006000E5000000A9FC0000E5000000E5000000E5000000E5000000E5000000E500000098
:20008000E5000000E5000000E5000000E5000000E5000000E5000000E5000000E500000038
:2000A000E5000000E5000000E5000000E5000000E5000000E5000000E5000000E500000018
:2000C000E5000000A1350000044B1A68B2F5806F03D01B689B0500D4FEE7704728ED00E0A3
:2000E000FEE700BFFEE700BF08B50DF011FD104A104B9A420DD2D0430F4918440B4620F058
:2001000003000430084453F8041B834242F8041BF9D10A480A494FF000028842B8BF40F8AB
:20012000042BFADB00F000FFFFF7CEFF08BD00BF00000020160300201439010018030020A3
:20014000224C002070B54A4801F0F4FD494801F0F1FD494C04F1600514F8023C13B1237C6C
:20016000012B76D92034A542F6D1444801F0E2FD08F01AFC08F0D0FB0446002873D0404898
:2001800003F054FA201D0AF081FBA1693D4803F04DFA08F033FA01463B4803F047FA08F087
:2001A00013FA0446D0B1364803F040FAE17D374803F03CFA364803F039FA204608F0F6F9C5
:2001C000C17B324803F032FAA169324803F02EFA204608F0FFF904460028E4D12E4D2F483C
:2001E00001F0A8FD28680EF0EDFA0446A8B1214628680EF053FC0646214803F017FAF179EA
:20020000274803F013FA0A2001F08CFD214628680EF09AFA04460028E9D1224D28680EF019
:20022000D1FA044680B1164803F000FAE17B1C4803F0FCF90A2001F075FD214628680EF003
:2002400083FA04460028EED11748BDE8704001F071BD0B4803F0EAF920460AF017FB0A2058
:2002600001F060FD7EE7114801F064FD91E700BFD4190100EC190100B64100200C1A0100B7
:20028000081A0100201A0100441A0100F4240100841A01008C1A010004020020681A010099
:2002A000981A0100D40100209C1A01003C1A01002DE9F843099B1D896C1EA2B2182A2AD8CB
:2002C000174E294656F824201648571CD3F80480D3F8109046F8247003F0A8F9124B56F81C
:2002E00024101B881148012B06BF08F10102A2EB05424A4603F09AF90D4B0E4A1B79D17969
:200300000133591AC9B20C4803F090F9BDE8F8430A2001F007BD0948BDE8F84301F00ABD43
:20032000403E0020B41A0100023E0020C41A01009C4100201C430020D01A0100D81A0100B7
:2003400070B5144B144C1A88216890B0134D01EB02460023ADF80E0001311148ADF80C2088
:200360008DF810308DF812300296019503F05EF90A2001F0D7FC3C210A4803F057F90A4B44
:200380003C2201A909480AF079F823680133236010B070BD023E002074030020BEBAFECA33
:2003A000EC1A0100FC1A0100400300207C03002038B505460C4608F007F918B910E008F0E2
:2003C00009F968B1C37DA342F9D10830046841688268C3682C606960AA60EB60012038BDF1
:2003E000002038BDF0B50446214B224D18882B68214E95B003EB0043204A06933368214601
:20040000ADF81C0000271E4809930592ADF81E408DF820708DF8227003F008F9316819483E
:2004200003F004F90A2001F07DFC214601A8FFF7BFFFB0B92146144803F0F8F8134A1448AC
:20044000136801331946136003F0F0F82B68192C03F101032B6002D133680133336015B0EB
:20046000F0BD01AB3C2205A90A480AF007F8EDE7023E00205003002000000020BEBAFECAC5
:20048000101B0100241B0100301B010078030020481B01007C030020F0B504888DB0B4F5EF
:2004A000EE7F054600F0A6800DD854B340F2CF139C4221D1A34806F007FB002840F0D8800B
:2004C00001200DB0F0BDB4F5F77F164600F0A88040F215239C420FD1882900F0E7809A48EC
:2004E00003F0A4F8994C2088012800F0D68040F2152301202B80E4E7002303202B800DB0C2
:20050000F0BD934F192193483C7003F08FF80F21914803F08BF842F21071904803F086F894
:200520008A4B1B88012B00F0BC808D4E4FF48073FD214FF481728B48318032817381B38127
:20054000F3813C707480B480F48003F06FF830460AF09CF90A2001F0E5FB3A78002A00F0B9
:200560008180814B8149012A18BF1946804803F05DF8002005F020FD3B78002B74D00024FB
:20058000FD2308AEADF81030ADF81240ADF81440ADF81640ADF81840ADF81A40ADF81C40B8
:2005A000ADF81E4004AF97E80F0086E80F003046704908F069FC01222146304608F01AFBE1
:2005C00031461E200AF0B8FD0AF098FE394640220AF064FB1E200AF031FB674B1B69984774
:2005E0004021584806F052FA40F2CF1301202B800DB0F0BD614806F067FA00283FF460AF04
:20060000524C5E482388012B0CBF20214FF4487106F03CFA4FF4F051594806F037FA62E7F6
:200620008829564B53D05748554A464C301A341BB0FA80F0B4FA84F4F31AB21AB3FA83F3A0
:20064000B2FA82F24009640900905B095209019402964D4802F0EAFF71684C4802F0E6FF94
:200660003A4C40E74A4981E7434B1B699847B7E700F026F940F2D243464A194600924648DE
:20068000002209F00BFF3D484FF4164106F0FEF94FF4EE732B80012013E74FF4F7732B8067
:2006A0000FE73E483B7001F045FB56E7334B9E4229D0344B9E4221D0314B9E427FF40FAF71
:2006C000FFF740FD2E4806F0EBF9204C0BE79E422CD02C48864203D0294A9642A5D1EFE7B7
:2006E0002F4B1A4C1888013080B2192885BF0222104618801A80FFF775FEF4E60120FFF78C
:200700001FFE124CEFE602F05BFE0446304606F0C7F9244B4FF44871A3FB04231B0A01FB77
:200720001341184806F0B2F9084CDCE6304606F0B7F902F045FE00F01F01124806F0A6F9FE
:20074000024CD0E6B00300203C1C0100023E0020183E0020641B01007C1B0100A01B0100BF
:2007600040030020D41B0100541B0100601B0100E41B010014430020582C010054030020C7
:2007800064030020A0030020081C0100341C01005C1B0100B10200007C030020C81B0100EB
:2007A000100300201F85EB51704700BF10B5114C236803B900B110BD02200EF00DFB3A283F
:2007C000F9D101200EF008FB49F602339842F2D109490A480DF024FF0028ECD112200EF043
:2007E0000DFB014605480DF01BFF0028E3D001232360E0E7C003002090360100A43E002051
:2008000070B50646054C04F10C0554F8043BDB680BB130469847AC42F7D170BD140000201A
:2008200070B50646054C04F10C0554F8043B1B690BB130469847AC42F7D170BD14000020B9
:200840004FF6FF7270B5104C82B002AD092325F8022D04F10C06ADF8043054F8043B9B689A
:200860001BB1294601A8984708B9B442F5D1BDF804100D200EF0A8FABDF806100E200EF0AB
:20088000A3FA02B070BD00BF140000208142F8B505460E4602D0084B00221A60074C04F1D1
:2008A0000C0754F8043B5B6813B1314628469847BC42F6D1F8BD00BFC003002014000020FF
:2008C00038B50F4807F08EFD0E490F480DF0A2FE0E4D002455F8043B03221B680C483BB114
:2008E000214602F0A3FE55F8043CA0B21B6898470134032CEED1BDE83840064801F01ABA6A
:200900002000002090360100A43E002014000020641C0100881C010010B1044B1B8803803E
:2009200009B100230B800120704700BFFA3D002010B5094A094C82B025211080208003F059
:2009400023FE238800228DE80C000721044B03F01DFF02B010BD00BFFA3D0020F83D0020B8
:200960005825010010B582B0002834D0C37A21B3CC7A9C421FD04FF6FF72934208D0184AED
:20098000D2799A421CD0174A1946106803F0F0FE4FF6FF739C420ED0114A124BD179186836
:2009A000002301930094A14214BF022103210E4B022203F0EBFE02B010BD4FF6FF74DAE79E
:2009C00008490022086800930192074B0222012103F0DCFEDCE70029EDD04FF6FF73C7E79B
:2009E000E44B0020C40300205825010010B50A4B82B040F28D11188003F0C6FD074B084C33
:200A0000DA7900238DE80C000121064B0222206003F0BCFE02B010BDFC3D0020E44B0020F4
:200A2000C40300205825010038B5054610200C460EF0D2F948B915B1064B1B882B8034B183
:200A4000054B0120DB79238038BD002038BD012038BD00BFFC3D0020E44B002048B3F0B507
:200A6000144AC379D2791448144E83FB004582FB00015C1950180011241104EB440700EB4A
:200A800040010F4DC4EBC704C0EBC1011B1B511A2A8883B09BB289B20093994214BF05215D
:200AA000072101923068074B002203F06FFE03B0F0BD7047E44B0020C94216B29C04002016
:200AC000FE3D002058250100FFF7C8BF002800F088802DE9F047444EC279074682FB0601B5
:200AE00053181B1103EB4305C3EBC503D31ADFF818819DB282B02946D8F8000003F01EFE87
:200B0000814668B1394BD97981FB06230B441B1103EB4302C3EBC203C91A89B28D4202D199
:200B200002B0BDE8F087324C20680DF04BFE824630B91FE0514620680DF006FE8246C8B18A
:200B4000514620680DF0AAFF0028F3D0C37983FB06015A18121102EB4201C2EBC1029B1A3A
:200B60009BB29D42DCD0514620680DF0EDFD82460028E5D11F4B1C48DB7983FB00015A18DE
:200B8000121102EB4201C2EBC1029B1A9BB29D4213D0384603F028FA044604F04BFE054669
:200BA0001CB1204603F084FB98B14946D8F8000002B0BDE8F04703F027BD0F4BD8F8000059
:200BC0001B880022019300950C4B022103F0DEFDA6E7E9B20A4802F029FD204603F078FB81
:200BE000E3E7084801F0A6B8C94216B2A43E002004020020E44B0020FE3D00205825010069
:200C0000C41C0100A81C01009C04002038B505460A4806F0BDF9044628B90DE0204606F0C4
:200C200031FA044640B1294604F120000DF0F8FC0028F3D0204638BD002038BD98040020C2
:200C400010B50446FFF742FF2046FFF7DFFFA8B1044601460A4806F0EFF92146094806F04C
:200C600045FA084894F8274006F06CFA2146BDE8104002460523044802F0D8BC10BD00BF6C
:200C80009804002068000020EC1C0100F8B5064612200D460EF0B2F8044610200EF09CF8D5
:200CA000012801D00020F8BD002CFBD0134920460DF0B6FC0028F5D1214611480DF0B0FCA6
:200CC00090B116B10F4B1B883380ADB1E2790E4E012082FB0667D3191B1103EB4301C3EB44
:200CE000C103D31A2B80F8BD084B214618680DF04FFE0028E5D1D5E70120F8BD9036010028
:200D0000A43E0020003E0020C94216B20402002030B5104A104D83B017211080288003F048
:200D200033FC0E4B0E4CDB79298883FB04455A19121102EB4204C2EBC4029B1A094C9BB272
:200D4000019100930022084B0221206003F01EFD03B030BD003E0020FE3D0020E44B0020A0
:200D6000C94216B29C0400205825010058B3F8B50446FFF74BFF20B1BDE8F840184800F022
:200D8000D9BF184806F094F90546F8B11548E77906F0D8F905F120060246394605231248FB
:200DA00002F044FC214630460DF034FC284633464FF470610D4A05F053FD2946BDE8F84014
:200DC0000B4806F0E7B80B4800F0B4BF0A4800F0B1FF204603F008F9BDE8F84003F078BA27
:200DE000641D010068000020201D0100410C000098040020081D0100381D0100814233D060
:200E0000F8B578B3061D0B46054629B30C1D214616480DF0FFFB04F00DFD074666B12846AA
:200E200003F046FA68B965B10246F9B2104802F0FDFB3046FFF79AFF2046BDE8F840FFF7D5
:200E40000DBE0C4800F076FF3046FFF73FFE2046BDE8F840FFF702BE074904481C460DF071
:200E6000D9FBD8E70646CEE7704700BFA43E0020981D0100801D01009036010070B50546DB
:200E800003F0B2F8044604F0D5FC0646204603F00FFA50B94CB10246F1B2084802F0C6FB04
:200EA0002846BDE87040FFF761BF054800F042FF2846BDE87040FFF709BE00BFCC1D0100B2
:200EC000B81D0100F0B5002706463C463D4683B0304600F00FFA0195019B9C4206DD00BFCB
:200EE000019B01330193019B9C42F8DC304600F00BFA0195019BC4F5C874A34206DA00BF2A
:200F0000019B01330193019BA342F8DB0137B7F5487F06D0B7F5C87FCCBFC7F548743C4620
:200F2000D6E703B0F0BD00BF2DE9F04F7C4C87B0236801217B485B6898472368012211466A
:200F40001B68784898470CF0B3FC01F02DFB01F0C5FA00F0D7FB01F0FDFA00F0C1F97249EC
:200F60007248734A012303600B601846714F1368FFF7A8FF0CF0A0FC00F036FD00F062FCC9
:200F800005F04EFF00F000FE05F09AFE6A4800F0D1FE41F2342002F019FA01F033F805F086
:200FA000E1FF6FF00E01FD6A0620A84702A9D7F828800620C0470299604802F037FB604809
:200FC00000F0B8FE4BF2AC7200215E4802F02EFB5D4800F0AFFE0CF0CFFB5C4C5C4E10F0D4
:200FE000040F14BFA246B2460CF0CEFB01280CBFA146B1460CF0C0FB10F0020F14BFA34610
:20100000B3460CF0B9FB10F0080F08BF34464A465B46009451464F4802F008FB00214E4830
:2010200005F02AFE05F0E2FB05F078FC0220FFF749FF4A4802F0FAFA494B4A4C186800F0E6
:2010400079FE494802F0F2FA484B186800F072FE474802F0EBFA2168464802F0E7FAE4699A
:20106000A04720B1A0470146434802F0DFFA0A2000F058FE00260DF073FD04A808213F4CD1
:20108000039600F08FFE9DF817209DF8169004AB03CB42EA09292060616002204AF6CD31B7
:2010A000A84749460320A84719210120A8477B6B082204A90B20984703A90120C04703991F
:2010C0002F4802F0B3FA01232E4A19462E481380E37102F0ABFA2D4B626821685A6019600D
:2010E0000DF09CFE31462A4805F0C6FD0420FFF7E9FE3146274805F0BFFD274805F020FBA1
:2011000000F050FD0820FFF7DDFE05F0F3FD044600F07CFD14F0FF0FF7D101F0A7F8F4E7BC
:20112000D801001000400340080009400C4009402C20094004200100F01D0100081E01006E
:201140001C1E0100401E0100581E0100E81D0100EC1D0100741E0100B4010020A81E01003F
:20116000B02C0100C4360100B01E0100582C0100B81E0100C01E0100C41E0100E44B00205B
:20118000E81E0100023E0020FC1E0100144300203002002074000020C81901002DE9F04147
:2011A00004880646772C30D07E2C27D024B1002303800320BDE8F08105F056FD2F4F304B1E
:2011C000304D3A6818702C60002A55D02346A0462D4C04F8038093680021802098472B6818
:2011E000013357F823202B60002AF2D1DBB2274A1370772333800120BDE8F081204B1B78AE
:201200008B421CD00120BDE8F081DFF880801D4D98F800201E4F00233B602B60002AE8D055
:20122000194CE256002A18DB2B6898F80020013393422B60F5DB3B68002BECD1D9E7114DA4
:20124000114CDFF84880124F2B683A68E15C013201F07F01E1543A60E7E7084A084952F891
:2012600023200978002005F0A3FD0028ECD17E2333800120BDE8F0811346B8E784000020E9
:201280001E4C0020A0040020AC3E0020193E0020A404002010B40E4B1C7864B10D4A13681F
:2012A000984213D0002303E052F8041F88420BD00133A342F8D1084A0848135D63F07F0390
:2012C000135510BC05F0A0BD1C46F4E70024F2E7193E002084000020AC3E00207400002095
:2012E00008B500F025F8024B00221A7008BD00BF1A3E0020034A137803431846137000F040
:201300003BB800BF1A3E0020034A137823EA00031846137000F030B81A3E0020034A1378B2
:2013200043401846137000F027B800BF1A3E00200D4B1A6802B1704710B501220B4C1A6046
:2013400023681920DB6B984723681B20DB6B984723680720DB6B984723680620DB6B98470C
:20136000034B044A1A6010BDA8040020B4010010A0200240C000000A0D4A0E490E4B0870AE
:201380001A60C20744BF4FF0007243F8102C810703D50A4B4FF000621A60420702D5074B9D
:2013A00080221A60030702D5044B40221A607047C000000A1B3E0020A02002409020024017
:2013C0000B2838B521D00F2834D012284CD0132852D00C2800D038BD394C204605F060FDD8
:2013E0000028F8D00421204605F046FD354B1D68C5F30035CDB100F071FAA368C31AE36044
:201400003148BDE83840FFF745BF304C204605F047FD0028DFD00421204605F02DFD294B2C
:201420001D68C5F3C025002D40D100F057FAE560A06038BD264C204605F032FD0028CAD013
:201440000421204605F018FD1E4B1D68C5F3C035002DEAD000F042FAA368C31AE3601D48B9
:20146000BDE83840FFF716BF4FF080524FF48041BDE8384000F024BE174C204605F010FDB5
:201480000028A8D00421204605F0F6FC0D4B1D68C5F3C045002DC8D000F020FAA368C31AE9
:2014A000E3600E48BDE83840FFF7F4BE00F016FAA368C31AE3600A48BDE83840FFF7EABE96
:2014C000AC040020C0200240541F0100BC040020CC040020141F0100DC040020241F01005E
:2014E000341F010028B1012806BF054BD86800207047044B1868C0F3C02080F001007047E0
:20150000BC040020C020024028B1012806BF054BD86800207047044B1868C0F3C03080F0B9
:2015200001007047CC040020C020024008B100207047034B1868C0F3804080F001007047E8
:20154000C020024028B1012806BF054BD86800207047044B1868C0F3C04080F00100704791
:20156000DC040020C020024028B1012806BF054BD86800207047044B1868C0F3003080F0F9
:2015800001007047AC040020C020024008B5034B1B685B689847C0F3804008BDB401001074
:2015A0008138012801D9002070470B20FFF7EEBF8138012801D9002070470F20FFF7E6BF6D
:2015C0008138012801D9002070471220FFF7DEBF8138012801D9002070471320FFF7D6BF62
:2015E0008138012801D9002070470C20FFF7CEBF802870B514460AD0812807D1E1B9BDE8E8
:201600007040184B10461B685B6B184770BD154D1549012393402A680B60936B2046984795
:201620002B6820460021114A1B689847E0B21049BDE8704000F078BF0A4D0B4901239340CA
:201640002A680B60936B204698472B6820461B68064A002198472B682046BDE870401B6BAA
:20166000184700BFB4010010E020024000400720C113000008B50B22FFF7BAFF012008BD8B
:2016800008B50F22FFF7B4FF012008BD08B51222FFF7AEFF012008BD08B51322FFF7A8FFC4
:2016A000012008BD08B50C22FFF7A2FF012008BD10B50A4C1A202368DB6B9847084A2368FA
:2016C0004FF0806111609B6B1720984723684FF4C0419B691720BDE810401847B40100103A
:2016E000A020024010B5064C042023685B699847236804205B6B98470128F9D110BD00BFAC
:20170000B801001070B50CF0D3F80646FFF7EAFF124B4FF4A0601B68DB699847104B012126
:20172000104A196013689B07FCD50F4D0F4800F0C9FE2B680D20DB6B0D4C98472B684FF46A
:2017400000522260DB6B142098474FF48013236006B170BDBDE870400CF0AEB8B80100109F
:201760002820086028200840B4010010A0000020A02002400120704710B503210022082097
:201780000BF090FF044B00221A600BF0E9FF04460BF048FF204610BD1C900C40802838B5A5
:2017A0001CD0812818D10C46194D1A202B68DB6B98472B6817201B684FF4C042002198476F
:2017C0002B6817209B6B98477CB9124B4FF080621A60114800F092FA012038BD0C4B1A20B1
:2017E0001B68DB6B9847012038BD0C4B4FF080621A60094800F02CFA094B0921586C0BF095
:20180000E7FE4FF4FA6000F0ADF8012038BD00BFB4010010A0200240B4000020902002404F
:201820004800001010B5064C042023685B699847236804205B6B98470128F9D110BD00BF14
:20184000B8010010F8B51A4A00200021C2E90001184B04201B685B6B9847012801D0FFF722
:20186000E1FF144B00201B68DB699847124B0121124A196013689B07FCD5114A11491368F1
:20188000096823F4807323F001030F4C13600B6820460E49984740F221200D4D0D490E4B5D
:2018A00004273126012227602E6008601A60F8BD18030020B8010010282008602820084093
:2018C0000C000140C801001000000140002100043C000140080001400400244310B4094935
:2018E000094C0B68226808688342FAD1DB01074903EB52620023C1E9002310BCD1E9000151
:20190000704700BF082009400C2009401803002010B50B490B4C0B68226808688342FAD1C3
:20192000DB01094903EB52620023C1E9002305F0D5F800B910BDBDE8104005F0A1B800BF9D
:20194000082009400C2009401803002010B50BF0AFFF034B1C6808B90BF0AEFF204610BD8A
:201960000820094038B51A4B05461B6804205B6B9847012801D0FFF755FF154B154A1B6887
:201980000020DB6914689847134B0121134A04F00104196013689807FCD5114B11491A4638
:2019A0000D60196841F4807119601368D905FCD404B138BD064B20461B681B6A9847064BD8
:2019C0000121064A196013689B07FCD538BD00BFB8010010542008402820086028200840B5
:2019E0000C0001402C0001402DE9F0410BF060FF1D4E1E4B1E4F32680124002580464FF45E
:201A000080314FF480703D601C60186019601368284623219847336820461B682421984724
:201A2000336825211B6802209847124A1249136843F4E02313600D600BF0E2FD0F4B104968
:201A4000104A1B6800F50070086014603C601B6914209847B8F1000F01D0BDE8F081BDE8F1
:201A6000F0410BF029BF00BF8401001004200940000024430020094008200940B00100108F
:201A80001C200940A0022443431E012B10B419D9042801D010BC704700231A4610F004006E
:201AA0001CBF0E4C216013B10D4B0121196012B10C4B01221A600028ECD00B4B01221A602B
:201AC00010BC704710F0010302D0084A0123116010F00202E2D0064C2160DFE720200940EE
:201AE00080022443A0022443C0022443182009401C200940014B1868704700BFEC04002073
:201B000008B50DF027FE184B1860FFF701FF174B1B686BB9164B1B68E3B9164B1B6833B1C4
:201B20001549164B00204FF4803208601A6008BD124B4FF480721A600BF062FD00F20520AD
:201B40000F4B20F4FF7020F001001860084B1B68002BE2D00B49094B0020012208601A609F
:201B600005F076F9D9E700BFEC040020A000244380002443C0002443C002244304200940C7
:201B80001C2009408002244303490448044B012208601A60704700BF00000840FFFF0F0020
:201BA000000C0840F8B50BF083FE124AB0FA80F01368012B0BD0104C104D1149114A01231E
:201BC000400925600B601360C3070FD4F8BD0E4F094D0A4E0A4C0B49400940F00200176050
:201BE0002E6023600B601360C307EFD5BDE8F8400BF062BE000C084000000840FFFF0F00C7
:201C00000C0008400401004351E5CC1A03490448044B012208601A60704700BF0000084062
:201C2000FFFF0F000C00084008B5064805F0B0F930B1054B0121054A196013689B06FCD592
:201C400008BD00BFF0040020000222431410094070B505460BF02CFE0B4C294606460B481E
:201C600005F098F9FFF7E0FF236868681B689847236868689B6898471128F9D106B170BD28
:201C8000BDE870400BF018BEA0010010F004002038B550B90446134805F07AF928B1234614
:201CA00005C813430028FBD19BB90F490F480B680F4D104C0068002223F4C0530B602A6036
:201CC0002260C368012098470B4A13689B06FCD438BD054A136823F4C05343F40063136020
:201CE00038BD00BFF004002004100940A001001080012243000222431410094038B505461C
:201D00000BF0D6FD04462946054805F095F90020FFF7BEFF04B138BDBDE838400BF0CCBD4E
:201D2000F004002010B50446C0B200F07FF9204610BD00BF70B506460024451E04E015F8CB
:201D4000010F00F073F9013430460FF00FFEA042F5D80A2000F06AF900F07CF90128FBD0DB
:201D6000204670BD70B50446B0B10078C0B1A9B10025661804E014F8010F38B1B44205D066
:201D800000F054F9631C05F10105F4D100F062F90128FBD0284670BD0546F7E70D46F5E794
:201DA0000546F3E710B40B4B0B4C13F8012FFF2A0DD1A342F9D1094A39B111440138013997
:201DC0000B78914200F8013FF9D110BC7047044AF2E700BFC7FF0100CFFF0100F01200505A
:201DE000C8FF010038B50C4D02202B685B6998472B6802205B6B984701280446064BF7D197
:201E00001B684FF40070DB699847044B044A1C6013689B07FCD538BDB801001028200860F4
:201E2000282008402DE9F04340F2F275DFF8DC8083B0FFF7D7FFD8F800302A4EDB682A48D1
:201E400098473368294C5B69152098472368DFF8C090274F23F4FE63D9F8002023F0020312
:201E600023603D60D36B032098472249D9F800204FF0FF33082008600093D2F84090022155
:201E800003221948C847D8F800206023D2F8048019494FF4E1321448C04740F2011240F25A
:201EA000013E1649164B142008601968154841F01001196003681449002B0CBF134673461E
:201EC0000B603D60036853B12368326843F0500323601369152003B0BDE8F043184703B00F
:201EE000BDE8F083B001001000100040381000404410004090200240006CDC0234100040DD
:201F00002C100040F404002030100040D0010010B401001008B5064B02201B685B6B9847AF
:201F2000012803BF034B186800F00100002008BDB80100106C20084038B50446FFF7EAFF5F
:201F400018B1264A13681907FCD4032C03D0244B1B6803B138BDFFF7DDFFF0B9214D4FF414
:201F600000702B681B6A9847032C2CD01E4B01211E4A196013689B07FCD5032000F0BEFAAA
:201F8000022000F0BBFA4FF0FF3000F0B7FABDE838404FF0FF3000F0B1BA154B15481B6845
:201FA000DB689847144B15201B685B69984740F2F270124A1249136823F4FE6323F00203EF
:201FC00013600860CAE72B684FF400709B6A98472B684FF400701B6B9847C7E7181000408A
:201FE000F4040020B80100102820086028200840D001001000100040B00100103810004046
:202000004410004010B50BF053FC0446054800F059FA054B00221A6004B110BDBDE81040E0
:202020000BF04ABCBC000020F404002010B50446FFF770FF08B9FFF7F5FE044B2146BDE832
:2020400010401B680248DB69184700BFD00100100010004008B5FFF75DFF18B1024B18682B
:20206000C0F3C00008BD00BF1810004038B5FFF7B9FE40F2F2710C4B0C4A1B68116013F02E
:20208000500F10D00A4C0B4D05E02B681B699847094B1B6823B923680848DB06F5D538BD4A
:2020A000C0B29847F7E738BD401000404410004018100040D0010010F40400200010004027
:2020C0002DE9F04740234FF0000882B00F461646CDF80080019305460BF0EAFB494A4A4BFA
:2020E000C2F80080444601204FF480714FF48032DFF85881186019601A60D8F80030204651
:202100003F211B6801349847042CF6D1DFF83C810024D8F8003020463F219B68013498473C
:20212000032CF6D1394B1B68FFF770FD384804F02FFF044630B1A368032003B19847246825
:20214000002CF8D16B1C0CD0324BAA0013430021314A1960136846F000523A4328461B6824
:2021600098472E4EDFF8E89000243368C9F800409B69072098476846FFF76AFD00F08CFA6A
:2021800000F03AFA264827490368326823F0030303600B68244D23F00F030B6093693820F4
:2021A00098472C600120FFF773FDDFF8A8A01F481F4A4FF001081F491F4B2C60134FCAF874
:2021C0000040C0F8008014601C4A0C60C9F800401C603B681A491368096823F00303136046
:2021E0004B68184803219847174A33682C60CAF80040C2F800809B6B3A68984702B0BDE827
:20220000F08700BF00002443042009402C200940F8040020001A4442B4010010B8010010D5
:2022200000100940081009404010094088010443400122434401224308000940242208404C
:20224000D80100100040034018100940840100100C40094020042243034A136823F004030C
:20226000136030BF704700BF10ED00E070B50BF01FFB04F093FD18B1BDE870400BF01CBBFB
:20228000804804F085FE0225044648B1636823B19847A84228BF2846C5B22468002CF5D1E3
:2022A0000DF058FA784B04461B68002B40F0898004F014FC002840F0B2800346012D00F0E6
:2022C0009380022DD8D1002840F0C780611E2846FFF7DAFB6B4804F05BFE0625044600281F
:2022E0007BD0A368022003B198472369246825EA0305002CF5D1FFF789FC6B0705F00604C6
:202300006ED4002C40F0A38000F0C6F90020FFF7BFFC5E495E4A0B685E4823F003030B6090
:202320001368016843F00F0313608B6939209847594A5A4900231360184613600B600BF0C2
:20234000CFFE062C00F08E80554C564D564E2B682368326823F003032360536803215348CA
:2023600098474C4B1B689B6B98472B680BF0E8FF4F4A3368002111604C485B6801219847EC
:2023800023684C4A012143F00303236011602B680CF00EF8FFF748FCFFF7BAFAFFF736FC2C
:2023A000384804F0F5FD044628B1E36803B198472468002CF9D10BF07FFABDE870400BF070
:2023C0007BBA3D4B1B681B1A022B3BD4A3F28F23002BBFF66DAF012335E0FFF717FC06249D
:2023E000344B00221A608CE7002842D06FF00702121BDA423AD404F58031CA1A11EA2201AA
:2024000038BF19460220FFF73FFB2C4A136823F00403136030BFBDE870400BF04DBA04F05C
:2024200065FB0646FFF75AFA361A002E7FF724AFFFF760FB224A00EB4623121BDA421BD496
:2024400001203BE700239D4228BF1D4630E7114B20461B689B69984756E719462846FFF7AE
:2024600013FB37E702200BF0C9FA6DE704F10801C8E704F58031C5E7022DB7D0012D7FF4A2
:20248000FBAEB3E7F8040020800224430010094008100940B801001040100940200422434F
:2024A000242208402C200940D801001000400340800104430C4009401820094010ED00E0D2
:2024C00071FDFFFF0146014804F064BDF80400200146014804F0B0BDF804002010B50548B0
:2024E00004F052FDBDE81040034B20211B6803201B681847F804002084010010431C0ED09F
:2025000010B50446064B4FF4C0421B6800211B689847044AA3001A430023136010BD7047A8
:20252000B4010010001A444238B504460D460BF0BFF901230549064AA3400B6042F824503B
:2025400000B138BDBDE838400BF0B6B9E0200240FC040020064B002103F1800243F8041FA6
:202560009342FBD1034B10201B681B69184700BFF8040020B0010010F8B5094B094F1D685C
:2025800000241D60012606FA04F32B42E0B203D057F8243003B198470134202CF3D1F8BD7A
:2025A000E0200240FC04002000B585B00022412302A802920393FFF74BFB04200BF00EFA12
:2025C000032810D0032104200BF0E0F904200BF005FA0328FAD100901C234FF040520021FF
:2025E00004480BF087F902A8FFF788FB05B05DF804FB00BF00A00C4000B583B000224123CF
:2026000068468DE80C00FFF723FB04200BF0E6F9022808D0022104200BF0B8F904200BF065
:20262000DDF90228FAD16846FFF768FB03B05DF804FB00BF00B583B00022412368468DE871
:202640000C00FFF705FB01200BF0C8F9012803D0012103200BF09AF96846FFF74FFB03B02B
:202660005DF804FB00B583B00022412368468DE80C00FFF7EDFA01200BF0B0F9012803D0CB
:20268000044B986B0AF08EFF6846FFF737FB03B05DF804FB4800001010B582B04123684623
:2026A000002401930094FFF7D3FA032021460BF06DF901200BF092F918B1044B986B0AF064
:2026C00071FF6846FFF71AFB02B010BD4800001008B50DF06DF830B1044B5B88022B14BFC8
:2026E0000220012008BD022008BD00BF0008002070B582B00DF05CF840B901A913480DF061
:202700005FF801280AD0002002B070BD0F4C6388022B08BF0120F0D102B070BD0DF01AF856
:202720000A4C00F1400504E00DF014F8401B002809DA6088054E0228F6D1A0F10200B0FA51
:2027400080F04009E8E77088F7E700BF0008002008B5B32994BF0A46B422014602480EF093
:20276000DDFF002008BD00BF9208002030B589B002A840F6020218210DF06EFA124A9DF88E
:202780001830126803F0F8039588104C6FF3C303012202A801A9ADF81A508DF818300794FA
:2027A0008DF816200DF00CF8012802D0002009B030BD02A80DF04EF8A0F10100B0FA80F003
:2027C000400909B030BD00BF10010020E400002008B5FFF7CBFF012801D0002008BDFFF7C4
:2027E00087FFC0B208BD00BF70B50E4D0E4E2C68002006E02379022B06D024682B689C424B
:202800000ED02379032BF5D133780120002BF4D1064804F0F9FA24682B6801209C42F0D17A
:2028200070BD00BFC80700201C3E0020DC02002030B583B00DF00AFA04460CF0B9FF08B96D
:2028400003B030BD01A90A480CF0BAFF0128F7D10CF080FF00F1400504E00CF07BFF401BD0
:202860000028EDDA638803F44063002BF5D0E7E7010001040B2807D00C2801D00120704739
:20288000042A11D002207047082AFBD10029F9D0094B0139A3F1080013F8012D834201F83F
:2028A000012FF9D1002070470029EBD0034B00201B680B60704700BF30080020C40700204E
:2028C00042F2034310B584B0002402A801A902940394ADF808300CF073FF20B19DF90A30F4
:2028E000803302D0204604B010BD9DF80C0000F00C00A0F10400B0FA80F0400904B010BD56
:2029000030B583B00CF054FF68B3184C6388022B03D028E0FFF7D4FF18B10CF049FF0028E0
:20292000F8D101A912480CF04BFF0CF013FF00F1400507E06388022B08D10CF00BFF401B07
:20294000002803DA0CF034FF0028F3D142F202426388934207D042F20740181AB0FA80F081
:20296000400903B030BD012003B030BD00080020010001040B2801D001207047082A01D0A0
:20298000022070470029FBD0104B083103F1080011F8012D03F8012F8342F9D110B50CF028
:2029A00007FF88B10A4B5B88022B0CD1FFF7A8FF01280CBF00240324FFF79AFE01280CBF38
:2029C0002046032010BD002010BD00BF270800200008002030B585B00CF0EAFE18B1104B5C
:2029E0005B88022B02D0FF2005B030BD4FF0000242F2034563F301028DF80C2000249DF8B4
:202A00000C0000F00303022BEED101A902A802940394ADF808500CF0D3FE0028EFD1E2E7CC
:202A20000008002070B504460CF0C2FEC8B1184B5B88022B20D10AF03BFF054694B9154B3A
:202A4000154C1E68002116F1804022684FF0000341F10001994208BF90420FD326603DB1DE
:202A6000012070BD0B4A0C4B12681A60002DF7D10AF022FF012070BD002070BD0CF06AFE59
:202A8000064A07491368086001331360E6E700BF0008002004300440C00700207C05002058
:202AA000FC07002008B50DF02DF9012814D00CF07FFE88B1094B5B88022B0DD10CF078FEA0
:202AC00030B9FFF787FFFF2806D0C0F3801008BDFFF7F6FE0028F4D0002008BD00080020A9
:202AE00008B502E0FFF7ECFE18B10CF061FE0028F8D1FFF705FF0CF09DFFFFF7CDFD0E4B97
:202B00000E48197900220229428012D00C4B1A79022A04BF00221A710A4B1A79022A04BF7F
:202B200000221A71084B1A79022A04BF00221A7108BD1A71EAE700BF8005002000080020B9
:202B400010060020A00600203007002008B50DF0D9F8012801D0FFF7C3FF012008BD00BF40
:202B6000F8B50DF0CFF8012830D0FFF763FD0CF01FFE38BB1E4A1F481F49204B92F805E048
:202B800047794E795D79012464F3830E64F3830764F3830664F38305882482F805E01060B0
:202BA00047710160C480D480CC804E710B601A60DC805D71FFF756FD0CF0D4FF012807D032
:202BC0000020F8BD0E4B5B88022BD3D10120F8BD0C4B1878003018BF01200CF0DDFFFFF760
:202BE000C5FD0128ECD1BDE8F840FFF781BD00BF8005002010060020A00600203007002065
:202C0000000800201C3E002070B584B0072800F2A980DFE800F01D5F242D305A6904524C56
:202C200021770CF0C5FD00B36388022B1DD1FFF767FE012814BF032400240CF0A1FF01281E
:202C400076D0FFF755FD012870D0032004B070BD01297BD000296FD0022004B070BD424C0B
:202C600061860CF0A5FD0028DED1002004B070BD3D4C2186D5E731F00702EDD13A4C3B481A
:202C8000237EC1F3400561F30003DBB243F00203067865F38203657EC1F3800103F087038E
:202CA00062F3C71362F3C7158E42657623760170B7D12F4B228B184603A95A800CF080FDF3
:202CC000002814BF00200320C0E731F00103C3D1C8B2BBE7A1F10B030F2BBDD8224CA37B3F
:202CE0009942C2D0A1739CE701F115031A2BB3D8204A6FF014030C2401E052F8343099427C
:202D00002ADD14F1FF34F8D20CF052FD00289DD0184B102203EBC404A38802A903A8ADF859
:202D20000E30ADF80C200CF04BFD9EE720468DE70020FFF777FE84E701910CF0E3FF012852
:202D400093D0FFF7CDFE019908467FE7FFF708FF01287FF47AAF88E7064B074A03EBC40379
:202D60001360D1E7012071E7000800201C3E0020F0070020801F01001001002081B1F0B54E
:202D80000C4685B0102800F29C80DFE800F087827D78615E945828221D9A9A1915100B0022
:202DA0000220704705230B60002005B0F0BD6FF014030B600020F8E71A230B600020F4E7A2
:202DC0000B230B600020F0E7494B00201B780B60EBE7484B00201B785BB20B60E5E70CF059
:202DE000E7FC00286FD0444B5B88022B08BF002769D14FF000030222002562F383030395C4
:202E000002958DF80C3042F2034609E001A902A802950395ADF808600CF0D2FC002858D04A
:202E20009DF80C3003F00C03082BEFD0002F58D19DF90A3023608033C4D10320B5E72E4BA2
:202E4000002093F91C300B60AFE700200860ACE70023294A0B60137E03F001030B60127EDA
:202E6000520744BF43F002030B60244B1B78002BA8D00B68002043F004030B6095E71E4B91
:202E800000201B8E0B6090E71B4B00205B8E0B608BE7194B00209B7B0B6086E70CF088FC49
:202EA00030B1154B5888A0F10200B0FA80F040092060002079E7124B00201B681B680B600D
:202EC00073E7012071E7FFF74BFE012805D107468FE780238DF80A301FB96FF07F03236080
:202EE000ABE70CF00FFF0128A2D0FFF7F9FD9FE71E3E00201D3E0020000800201C3E002090
:202F00001001002070B588B005460CF051FC002851D03E4B5B88022B08BF00264BD10CF0A8
:202F200019FC6FF01F04241A07E0FFF7C9FC012848D10CF00FFCC44246D50CF039FC002857
:202F4000F3D102A842F6014218210CF085FE304C304B0022EDB28DF8175021780693049264
:202F60009DF81430891A18BF012162F3030301208DF814300CF04AFE02A801A90CF020FCE7
:202F800030B3207801E0002835D0BDF80A3003F44063002BF7D0BDF80A40A4B2B4F51054CB
:202FA00018BF0124003018BF01200CF043FEC6B9204608B070BDFFF7D3FD012819D00120ED
:202FC00008B070BD0028BCD0C6B9022008B070BD20780124003018BF01200CF02BFE002E9A
:202FE000E6D00CF08FFE0128E2D0FFF779FD2046E6E7064693E7FFF72FF9C2E70CF082FE0F
:203000000128E2D0FFF76CFDDFE700BF000800201C3E00209208002010B50C46B32998BF4B
:203020002246014688BFB42203480EF077FB2046BDE81040FFF766BF9208002010B50CF018
:2030400061FE012824D00CF0B3FBB0B11B4B5B88022B03D011E0FFF733FC18B10CF0A8FB22
:203060000028F8D1FFF7B6FCFF2811D000F0030010F1FF3018BF012010BDFFF771FD01283A
:20308000044607D00CF03EFE012801D0FFF728FD012010BDFFF79EFCFF2805D000F0030055
:2030A00010F1FF3418BF01240CF02CFE012803D0FFF716FD204610BD204610BD0008002027
:2030C0002DE9F043584D83B080460F462E680CF041FB564C241A03E00CF03CFBC44208D50D
:2030E0003379022BF8D0032B06D0002003B0BDE8F0833379032BF8D12E684B4A337A032B97
:2031000007D996F808905FFA89F9A9F10804BC4207DD3368002013603071307203B0BDE87D
:20312000F0834046224606F109010EF0F7FA09F10303F35CDFF8148109F1040288F80030D3
:2031400009F10509B35C56F80900394F03F03F0301903B70019E0CF02BFB00284BD0354B84
:203160005B88022B08BF4FF0000944D10CF020FB48B1304B5B88022B05D10020FFF752FC46
:20318000B9F1000F48D12C4BB6F1404FD3F800900BD90CF0DFFA294B1B68C3F17E4303F538
:2031A0007203C34248BF09F1FF396FF4BF708019234E4FF0FF31366841F100010022801BC3
:2031C00061EBE671121849EB0103190241EA12611002002343F609520EF0DEF8194B1A4ACC
:2031E0001B78106063B12B6800221968204629601A721A717AE7FFF7B3FC4FF00109B5E791
:2032000098F80010042049B289B20BF0DDFD397803200BF0D9FDE6E70CF074FD0128B2D055
:20322000FFF75EFCAFE700BFF8070020FAFEFFFF1E3E0020000800207C050020FC0700206C
:20324000603B00201C3E0020C40700201D3E002010B50CF0ADFA80B1144B5B88022B0CD1EE
:203260000020FFF7DFFB0446BCB9BDE8104000230F4A80210F4803F0F3BAFFF771FC01280A
:20328000F3D10020FFF7CEFB04460CF03BFD0128EAD0FFF725FC002CE7D0BDE81040002318
:2032A000034A4FF48731034803F0DABA0008002051320000D0070020F8B53248324FFEF7B5
:2032C00039FD3248FFF7FEF80CF02AFC3846902200210EF0FDFA902200212D480EF0F8FAB2
:2032E000902200212B482C4C0EF0F2FA902200212A480EF0EDFA2A4E2A4B002529468022D9
:2033000020461F60376075600EF0E2FA42F6010E42F20200072202236376227622491922A0
:20332000224B278B2661A273B9266F22E6736161E276FF210122A626A4F800E026775F80E8
:203340001971A176627384F837201880FFF708FC012802D02C462046F8BD044614480CF068
:2033600089FC2046FFF75EFB2B46124A4FF48731114803F075FA2946104803F07DFC2046F7
:20338000F8BD00BFF01F010080050020D000002010060020A0060020000800203007002099
:2033A000C8070020F807002080080020F0070020E81F010051320000D0070020DC020020C0
:2033C00008B500F08BF880B208BD00BF00F010B938B50C4D04202B685B6998472B680420F7
:2033E0005B6B984701280446064BF7D11B6840F20140DB699847044B044A1C6013689B074D
:20340000FCD538BDB80100102820086028200840034B1B68002B14BF01200220704700BF55
:2034200048090020F8B503880446002B2ED0B3F5847F05D1184B1B788B4205D00120F8BD81
:20344000002303800320F8BD144D2B6873B1144B144A1B6812685B680220174698470026D5
:20346000301847F100012B6898472E600E4B40F201401B689B6A98470C4B01210C4A196050
:2034800013689B07FCD50B48FFF722F84FF4847323800120F8BD00BF1403002048090020C1
:2034A000CC01001004800240B801001028200860282008401401002008B5064B04201B6876
:2034C0005B6B9847012803BF034B1868C0F34000002008BDB80100103C20084070B5274BB2
:2034E0001B689BB1264C0023224612F8011B29B90133042BF9D10020014670BD214A0025A7
:2035000002EBC302E55492E8030070BDFFF7D4FF00282FD01C4A1D4B1268134073B91C4AF9
:203520000121134611601A68002AFCD110464FF480710AF07BFF174B01221A600AF0B8F97E
:203540000646114A1368DB07FCD5134B134A1B6814685B680220984723460022141843F12D
:20356000000516B12046294670BD0AF0A5F92046294670BDFFF72CFFCCE700BF48090020DF
:203580004C090020200300200880024001000080F09F0240A8025042CC0100100480024078
:2035A00038B50E4D00240E4A2C6013680D4923F00103096813604B6931209847224620463D
:2035C0004FF480710AF032FF0122074B2A6019782246BDE83840054803F0EABBA802504256
:2035E0000C800240B0010010140300202801002010B5074C2378802B00D010BD03F034FB9F
:20360000207000210348BDE8104003F035BB00BF14030020280100200AB90020704708B540
:2036200008461146FEF79EFB002008BD0FB400B583B004AB53F8041B04481A46019300F07E
:2036400025F803B05DF804EB04B0704738010020102970B50C46054602D80AE0102C0BD9B3
:203660002B681022084968689847103C0028F5D070BD08460029FBD022462B6868680249C7
:20368000BDE87040184700BF582001002DE9F04F834688468FB001924FF0000998F8003078
:2036A000002B00F0E380252B08BF45461DD0444603E0252B00F045812C466378651C002B91
:2036C000F7D1454500F0D280C8EB050641463246DBF80030DBF804009847002840F03D82C9
:2036E0006378B144002B00F0C1806B7805F10108002B00F0BB800025A3F12002102A1BD85E
:20370000DFE802F0171A1A141A1A1A1A1A1A1A111A0E1A1A090045F0100518F8013FEBE7F9
:2037200045F00105F9E745F00605F6E745F00805F3E745F00205F0E7A3F13102082A00F237
:20374000D580002404EB840403EB440418F8013F303CA3F13002092AF4D92E2B00F0CE802A
:203760004FF0FF366C2B00F0E280682B00F04481782B00F28180DFE813F079007F007F00CD
:203780007F007F007F007F007F007F007F007F007F007F007F007F007F007F007F007F0039
:2037A0007F007F007F007F007F007F007F007F007F007F007F007F007F007F007F007F0019
:2037C0007F007F00E2027F007F007F007F007F007F007F007F007F007F007F007F007F0094
:2037E0007F007F007F007F007F007F007F007F007F007F007F007F007F007F00DF027F0077
:203800007F007F00DC02D902D6027F007F007F007F007F007F007F007F007F007F007F00A4
:203820007F007F007F007F007F00D3027F007F007F007F007F007F007F007F00D0027F00EF
:20384000CD02CA02C702C402C1027F00CA027F007F007F007F00BE02BB027D007F007F003C
:20386000B8027F00B5027F007F00B20248460FB0BDE8F08F45F4407505F4E063B3F5806F74
:2038800008F1010800F06E815FD9B3F5C06F00F0A181B3F5E06F00F09681B3F5A06F7FF4FE
:2038A000FDAE019A012C136888BF04F1FF3402F104028DF8203098BF0024EB07019200F1EC
:2038C000F38121465846FFF7C3FE002840F045810122DBF8003008A9DBF8040009EB0205F1
:2038E0009847002840F03981254497E12A2B00F08D802E2B4FF000047FF432AF98F80130F3
:2039000008F10101A3F13002092A00F28D808846002606EB860603EB460618F8013F303E4B
:20392000A3F13002092AF4D96C2B7FF41EAF98F801306C2B00F05A8108F1010845F060052B
:2039400016E745457FF4C0AECFE6B3F5807F70D0B3F5407F7FF4A2AE0198B24B15F4804FCB
:20396000B14F18BF1F4603460168043301930A460023002900F0AB810DF1330E70461109C7
:2039800041EA03714FEA131C02F00F0663460A46B95D00F8011D52EA0301F0D1BEEB000644
:2039A00000F097810336B4424FF078034FF0300200F8013C00F8022C4FF023038CBFA41BDB
:2039C0000024EA0700F8033CA0F1030700F1BA8121465846FFF73CFE002840F0BE8039468A
:2039E000DBF800303246DBF804009847002840F0B48009EB060511E198F80130682B00F0D5
:203A0000B58108F1010845F04005B1E6019A08F10108134614680433002C0193B8BF45F048
:203A2000010598F8003098E62A2B00F0A681884696E6002EABBF25F0100501230596059373
:203A400015F40053049305F0E00300F0F580402B00F0A88200F29B81002B00F06182202B5A
:203A600040F08A82019991F900200431D3170191002A73F10001C0F25F82CDE902230023F5
:203A8000069305F4C053B3F5805F00F0F080B3F5C05F00F0CC81B3F5006F00F0ED810DF123
:203AA000360A002741F60803059941F208028F4203EA050380F08E819342A1EB070600F0DF
:203AC000518241F60802934207EB060100F08D8100231A460293049B83B1069B002B40F01F
:203AE000928105F00603022B00F053824F48062B08BF0246029B08BF01230293029B0B44E3
:203B00009C428CBFE41A002415F00103049304D1E80640F11D8226441C46029838B1114681
:203B2000DBF800300246DBF804009847A8B9102E07EB090540F2C381B14603E0B9F1100FCC
:203B400040F2BF81DBF8003010223949DBF804009847A9F110090028F0D04FF0FF300FB0BE
:203B6000BDE8F08F019A1346D2F800A004330193BAF1000F00F0E8819AF8007037B157465E
:203B800017F8013F002BFBD1CAEB0707002E02DBB74228BF3746BC428CBFE41B0024E90758
:203BA0002BD421465846FFF753FD0028D5D15146DBF800303A46DBF8040098470028CCD158
:203BC00007EB09052AE0019A136804320192C3F8009063E5DBF8003001221649DBF804000D
:203BE00098470028B9D109F1010957E598F8023045F0800508F10208BAE55146DBF800303C
:203C00003A46DBF8040098470028A6D12146584607EB0905FFF71CFD00289ED104EB050927
:203C20003CE500BF782001008C200100AC20010068200100B8200100402B00F0AE8100F2B3
:203C4000B680002B00F06181202B40F0E080049A019906920A780023CDE902230B4604337E
:203C6000019305F4C053B3F5805F7FF410AFDDE90223134300F09D810DF1360307939A46EB
:203C8000DDE90223D00840EA4370DE0802F007013346024630310AF8011D52EA0301F1D160
:203CA000079BCAEB0307FDE6DBF80030012208A9DBF80400984700287FF44FAF2146584695
:203CC00009F10105FFF7C4FC0028A7D045E70DF13300302300F8013C0426013863E645F4C5
:203CE000C855C9E545F41065C6E545F48065C3E545F48855C0E545F4E065BDE545F4813510
:203D0000BAE545F40075B7E545F40245B4E545F42455B1E545F4A065AEE545F4C135ABE5C9
:203D200045F4B245A8E545F4A135A5E545F48445A2E545F442459FE545F4E1359CE545F457
:203D4000C06599E53946DBF800303246DBF80400984700287FF401AF2146584609EB0605C1
:203D6000FFF776FC00283FF459AFF6E698F8023045F0200508F10208FAE4019998F8023043
:203D80000A4604320E68019208F10208EAE4602B00F0C680802B40F0EF80019B073323F0CF
:203DA000070303F108020192D3E9002360E6602B00F0AB80802B2AD1049B0693019B0733E9
:203DC00023F0070303F108020192D3E90023CDE9022356E6934200F0CD8041F608020026C6
:203DE000934207EB06017FF473AEDDE9022313433FF46EAE744B15F4804F744A18BF1A4645
:203E00000223029367E601230293714A76E605F4C053B3F5805F00F0D080B3F5C05F40F001
:203E2000AE8000230022CDE9022300230693694B15F4804FDDE90201674E024618BF1E46EB
:203E40000B46134300F0B5800DF1360307939A4602460B46110941EA03711F0902F00F006A
:203E60003B460A46315C0AF8011D52EA0301F1D1079BCAEB030715E6DDE9026732463B463E
:203E8000134300F096800DF136039A460793304639460A2200230DF07FFA30323046394604
:203EA0000AF8012D00230A220DF076FA06460F4656EA0703EBD1079BCAEB0307F2E556B130
:203EC000B1464A46DBF800304449DBF80400984700287FF442AE3A46029F51462F44DBF88C
:203EE0000030DBF804003D46984700287FF435AE049B3544002B3FF491AE21465846FFF72B
:203F0000A7FB00283FF48AAE27E6019A136804321946049B01920022CDE902120693B0E568
:203F200001990B460A6804330193002A4FEAE27373F10001BFF6A1AD524263EB4303CDE95B
:203F40000223012306939CE5DFF898A006271DE6214658460592FFF77BFB059A00283FF4BD
:203F6000DCADFAE5002E08BF0126002302931A46B919B0E50126F8E7002200237DE500236E
:203F800006931F4600220023CDE902230DF1360A88E50123124A0293B0E5049A01990692DE
:203FA0000A8858E60199B1F900200431D31701915EE500270DF1360A74E500230022CDE920
:203FC00002230023069352E6A0200100A4200100A8200100782001008C20010068200100AA
:203FE000142D0100B020010038B5054601F022FC90B90A4802F0CCFF044628B90CE0204692
:2040000003F040F8044638B12946201D0AF008FB0028F4D0204638BD002038BD64090020B0
:2040200038B50546FFF7E0FF044608B1204638BD01F006FC0028F9D0174803F039F8044664
:20404000F8B1582200210DF043FC102104F1540003F0A0F82946201D0AF0DCFA0F49284699
:204060000AF0DEFA80B1012000220123207321460B48E273A37302F08DFFE9790948FFF7F7
:20408000D5FA01F031FCD1E7074928460AF0C8FA003018BF0120E7E74C0100206025010018
:2040A00064090020BC2001005825010008B501F0C1FB60B9084802F06BFF40B1437B13B176
:2040C00008E0437B2BB902F0DDFF0028F9D1002008BD08BD08BD00BF6409002070B505466B
:2040E00001F0A8FB10B91B4B1C680CB1002070BDFFF7DCFF064605B32846FFF791FF05465B
:204100000028F3D0B54222D006B1F47A2146B5B1EA7A1148FFF78AFA01236B734FF4C0603D
:2041200001F056FF01F064FF0EB10023737330462946FCF7ABFB012070BD2546E2E72A46AD
:204140000548FFF773FA284601F042FFECE7012070BD00BFFC150020DC2001002DE9F047B4
:2041600082B004468A46914601F064FB002835D107462046FFF754FF054678B300F15408DF
:20418000404603F01BF806B2731C2AD0254802F08FFF044628B3FCF753FB0AF053FE206034
:2041A000002837D005EB860303226273C4F804A0C4F80890277340465C6102F0F1FF194889
:2041C00002F0C0FFEA7A03460092314622461648FFF72CFA204602B0BDE8F0874FF0FF36EE
:2041E0000025002401F026FB234601932A463346014600940D48FFF719FA0D4A0D481388FE
:2042000001339BB219461380FFF710FA002002B0BDE8F0872146034802F068FF01F00AFB3C
:204220002368E2E7400100200021010050210100043E00208021010010B5044601F0FAFA3D
:2042400040B92046FFF7ECFE20B1BDE81040543002F0D8BF4FF0FF3010BD00BF38B504461B
:2042600001F0E8FA78B974B104F1540002F0B2FF05B26B1C07D0294604EB85040348FFF7EC
:20428000D5F9606938BD002038BD00BF8C21010050B110B5044600680AF0F8FD2146BDE89D
:2042A0001040024802F022BF704700BF4001002010B5044601F0BEFA40B944B104F15400CB
:2042C00002F0A6FF003018BF012010BD002010BDF8B5054604270F4E15E02846FFF7BEFFCF
:2042E0000422044640B14773037B816840680BF0F9F92046FFF7CCFF336807480133194603
:204300003360FFF793F92846FFF7D2FF0028E4D0F8BD00BF60090020BC210100F8B501F0FE
:2043200089FA00B1F8BD0646094802F031FE04460028F7D00127204602F0A4FE05462046CA
:20434000FFF7C6FFE673A7732C46002DF3D1F8BD6409002038B501F06DFA00B138BD174840
:2043600002F016FE044618B9F8E72C46002DF5D0204602F087FEA3890546002BF5D1637CB5
:20438000002BF2D12046FFF793FF0028EDD001F057FA0028E9D0E17A0948FFF747F92146F0
:2043A000064802F049FE01F09FFA2046FFF790FF2146044802F09AFED7E700BF64090020BA
:2043C000CC2101004C01002070B504460D4601F031FA58BB65B32E7DC6F3800634B304F1B3
:2043E000540002F005FF00B2431C1FD00EB1E37BE3B904EB800463690D2118680AF08AFD4C
:20440000636906460E2118680AF084FD4FF6FF739E4202D0EB899E4208D14FF6FF73984233
:2044200002D02B8A984201D1606970BD002070BD2E46D3E770B506460D4601F0FBF9C8B9AE
:204440000E4802F0A5FD044628B913E0204602F019FE044670B1237B002BF7D1637C002BDF
:20446000F4D129462046FFF7AFFF0028EED01EB1346070BD002070BD70BD00BF64090020C2
:2044800000220123C2738373704700BF10B5837B0446052BDABF0133DBB207238373FEF789
:2044A0008FFFA27B01239340013B03EA90100130E07310BD70B5054601F0BCF900B170BD4C
:2044C000104928460AF0ACF806460F4802F060FD044668B9F3E728460AF0A2F810B1E37B1F
:2044E000013BE373204602F0CDFD04460028E6D0E37B002BF6D0627C211D002AEBD1002E61
:20450000EED1EFE7582501006409002008B50A4802F03AFD094802F0B9FD094802F0B6FDD4
:204520000848FFF77DFD084B18600848FFF778FD074B186008BD00BF640900204C010020ED
:204540004001002060250100B83E002058250100B43E002010B5044601F06CF970B90948EF
:2045600002F016FD50B18388A34203D109E08388A34205D002F086FD0028F8D1002010BD70
:2045800010BD10BD5410002099B3F8B50D460746FFF7E0FF064638BB01F052F938B31648CB
:2045A00002F086FD0446B0B14FF0FF33B3FBF5F305FB03F35B42B3FBF5F205FB12330C302B
:2045C0002061A780E580E660238102F0DDFC21460A4802F0DFFC2A4639460948FFF726F83F
:2045E00001F082F92046F8BD0648FDF7A3FB0020F8BD0020704700BF5801002054100020EC
:2046000018220100EC210100F0B585B0002832D0002934D0CA8983889A4203D00026304677
:2046200005B0F0BD05460C4601F00AF9064640B302A8A11D267D09F0EDFF1B4B608A1A6886
:20464000677B944204BF00221A60A988227D238A8DE881001548FEF7E9FF2146286902F0AC
:20466000EBFC2146124802F041FD01F03DF9F2070BD40126D3E70646304605B0F0BD0E460A
:20468000CDE70C48FDF756FBC9E702A8FFF7C8FC0028EED0437C013B43747307E9D4837CEB
:2046A000013B8374E5E700BF101500203C220100640100206822010040B338B5044605E079
:2046C00001462046FFF7A0FFC5B24DB1206902F05FFC0028F4D101F0B3F830B9002038BDC6
:2046E0000B48FDF727FB284638BDE288A1880948FEF79CFF2146084802F0F8FC2146074827
:2047000002F09AFC01F0F0F8012038BD00207047A4220100CC220100580100205410002098
:2047200008B502E0FFF7C8FF28B1034802F030FC0028F7D1012008BD5410002038B5054649
:204740000C4601F077F878B975B1286902F020FC50B1038AA34203D109E0038AA34205D03A
:2047600002F090FC0028F8D1002038BD38BD38BD58B110B50446FFF7E1FF01462046FFF73A
:2047800043FF003018BF012010BD70472DE9F04F85B0BDF83860BDF83C900746002863D02B
:2047A0008846314692461D46FFF7E2FF01F048F8044600284ED02D4802F07AFC0446002892
:2047C0004CD00146386902F0E5FB294B294A002D08BF1D46136884F81480A38084F815A0E6
:2047E000B888002104F1060B0133E081A161584629462682A4F81290136009F00BFFEA79EF
:20480000B988534602928DE8400242461A48FEF70DFF01F069F8237DDA0703D4204605B0C3
:20482000BDE8F08F5846FFF7FBFB05460028F5D0427CC17A0132D2B242741048FEF7F6FEEB
:20484000237D5B07EAD42046AB7C0133AB7405B0BDE8F08F0A48FDF76DFADFE70948FDF727
:2048600069FA01F041F8D9E70446D7E76401002090360100781000205823010084230100CB
:20488000F42201002C2301002DE9F84F81468B46924600F0CFFF002875D180463E4802F07A
:2048A00077FB0746002872D04546464699F804203B89F98803FB02F3D9F8004093FBF1F04B
:2048C000B4FBF1F201FB103301FB12429BB292B2134493FBF1F401FB14343869A4B202F02F
:2048E00057FB20B915E027D002F0CCFB88B1038A9C4224BFFA889B181B1B9BB275B3B3428C
:20490000F1D21E4605464FF0000802F0BBFB0028EDD1384602F0B6FB07460028C6D1BBF177
:20492000000F01D0ABF80060BAF1000F01D0CAF800802846BDE8F88F297D027D81EA020695
:20494000F6070FD4B0F80EE0EE89B6450CD2B8F1000F04D1A8420AD08A0700D5A8461E4688
:204960000546C1E7D607F2D4B8F1000F01D01E46BAE712F0020F18BF804611F0020F18BF7A
:20498000A8461E46B0E74FF000084546CCE7804605460646C3E700BF5410002008B500F0B2
:2049A0004FFF58B1064802F071FB064802F06EFB054802F0E9FA00F097FF012008BD00BFFE
:2049C000640100205801002054100020F0B40C480C4D0D4C0D4A00232B60236003600C4F65
:2049E0000C4E0D4D0D4C0E4811783B6033602B602360036009B901231370F0BC704700BFA1
:204A0000C41400205414002068140020223E00202C150020FC14002074140020EC140020A1
:204A20007C140020014B5B6A184700BF042001002DE9F04182B00C4616461D4607460AF0A1
:204A400089FE8046A31E9819844294BF00220122A0452CBF002301239A4222D0A3B10BF005
:204A600095FB70B10223C4EB080400F8103B0F4A2B4630218DE850000BF05EF90BF0AAFB90
:204A8000002002B0BDE8F081009331193846084B012202F0C7F9B0FA80F0400902B0BDE8F1
:204AA000F081804534BF00230123D7E76C2401006D50000040F297222DE9F04F7E4FCDB0F0
:204AC0003B888046934200F0278140F2B622934253D02BB100233B8003204DB0BDE8F08FE0
:204AE000764802F06BFB764B18600130F2D0754E3368002B00F0E5811868002800F0E1819B
:204B00000AF0F2F9DFF8FC913368C9F8000018680AF0F6F96C4CD9F80020236891786B4D92
:204B20001A7BDFF8C8A16A4B28708AF800101A700BF02CFB50B1022300F8103B654A9AF86B
:204B4000003030210BF0F8F80BF044FB624B22681B689A4200F00F82604B01221A60DFF879
:204B6000A8A1D9F80000DAF8043029789847002800F0CB81DFF894910FE1DFF89091DFF876
:204B800088A1574E574C584D0AF0E4FDA2682B682169134432680B441344C01A0028F3DB96
:204BA000DAF81860DFF868810EE00AF0D3FD21692A686FF017030A44E1699B1AD8F8002061
:204BC0005B1A9B1AC34202D5B0470028EDD00AF0C1FDC0F1180505E00AF0BCFD636AEB1A03
:204BE000C34202D5B0470028F6D17F21DAF810302CA89847011E40F39981334C2368002BED
:204C000000F022815B7B002B00F01E81374B0DF113051A7815AB8DE828002CA805AB0BF06B
:204C200033FB002800F01E81BDF95430002B4FEAC333C0F27F8103F5F4232D4D03F59073C5
:204C400085FB0325DFF8CC80DB172A4EC3EBA545D8F8002033686D001E2DC3EB020A40F357
:204C60008681DFF89CB01E23CBF800300BF08EFA60B1DBF80020022300F8103B30212B4625
:204C800000921D4A0BF058F80BF0A4FADBF800201A4B1FFA8AF1206801251D700BF0E4F839
:204CA00098E8030086E8030001F0A2F9002389F80030044E71E000BF78140020003F002033
:204CC000C8150020F01400205C1400201F3E0020233E002080240100B83E002070010020D9
:204CE000701400204841002060140020253E002083DE1B4314150020A4240100243E0020FD
:204D00006C140020D015002004200100203E002000150020884100209D4DDFF8C4A29D4E1B
:204D20009D4C0AF017FD3268A3689A491344C3F10603C342984AF4D4DAF8083028780392F2
:204D40000291984795F800E0944B4FEA0E5E944D734485FB0325039ADB17C3EBA543956A8C
:204D60005B00AB4228BF2B460299D2F808C0D1F800E08C4DDFF86C92DFF86CB2C0B2E6447E
:204D80002B6089F80000CBF800E0002800F0A0800423854E854C89F80030FFF743FE3268DF
:204DA0008348137B99F800100133DBB2006813735173027D256802F00402D4B295F80C80E3
:204DC000002954D0082B70D8B8F1000F67D00BF0DDF90446002833D099F8002033684FF04B
:204DE0000008026180F800801A7B6F4D027718680AF086F86F4B704A197812683368A26171
:204E000084F82010607718680AF06EF80378326803F00703A3F10103B3FA83F35B0984F882
:204E20001F80A377106812210AF06EF828B12B68122118680AF068F8C07960610BF0CAF97D
:204E40005E4801F0E1FF45E65D4B0DF113051A7815AB8DE828002CA805AB0BF015FA00284D
:204E60007FF424AF022389F800304F4E95E72846FFF7F4F9B8F1000F07D11CB92846FFF7E3
:204E800017FA10B12846FFF7FBFA4E4A4E4B126831684E4843F8221002F082F997E7002C89
:204EA00095D02846FFF7F2FA91E72846FFF7D6F9B8F1000FE9D1002CE7D02846FFF7E6FAF9
:204EC000E3E7DFF82091052389F80030374C64E7DFF818E19EF800E0BEF1000F04D089F880
:204EE0000000314E314C58E7126909686244023A1A444046364BFFF79BFD00283FF444AE69
:204F000040F2B62301203B80E7E5234C214EA2683168083A2F4B4046FFF78AFD00283FF443
:204F200000AF40F2972301203B80D6E51F4C7FF4BDAE97E7A3F5F423194DA3F5907385FB48
:204F40000325DFF8AC80DB17234EC3EBA545D8F8002033686D0015F11E0FC3EB020A06DA66
:204F6000DFF854B06FF01D03CBF800307EE6124B2A461D608CE633682978DA7BD9F8000062
:204F80000BF070FA154B186000283FF4F3ADE6E51F3E0020701400204841002020A137004C
:204FA00083DE1B4360140020F01400205C14002010150020243E00206C14002074010020EE
:204FC000253E0020C8150020BC3E0020003F0020982401008C240100141500207001002090
:204FE00004200100203E002000150020233E00208841002010B5037D82B0002213F00103CF
:2050000001921ED0437D0446013B012B0CD9A01DFEF7EAFF21460190FFF7D6F9B0B1019B63
:205020000F4A136002B010BD0E4B01461B6818460193FFF7C9F9637D022BF0D00028EED1A4
:20504000E5E71846064A136002B010BD064A019B12689342E4D1214601A8FFF7EBF9DEE745
:205060005C140020B83E0020B43E002040F28E422DE9F04FA04B89B01B888146934200F0CE
:20508000CF807CD940F2924293420ED040F2CA42934203D1994B1B68002B73D1964A0023F3
:2050A0001380032009B0BDE8F08F40F26132DFF8A0A2BAF80030934200F0F68040F20342EB
:2050C000934200F08681002B00F07481DFF884828B4D0023AAF800308A4B8B4A1B68059286
:2050E000002B00F0AD8008AB1A468849002322F8043D874E874F0391874C04922AE0BDF89F
:205100001CC02B68002113EB0C0304D37C4A7C481279013202713868D8F82C202B6002FB1C
:205120000C0B039BD4F800A01970236858465B44396023600AF030FF23685A4600EB030E91
:205140005146764B4846C4F800E0FFF771FC002840F09B80306828B1037D03F00503052BDB
:2051600000F09E806E4A04996548FFF78DFB30600028C4D101239C46ADF81C30C1E7002B8A
:2051800088D08BE7624C206800284FD0654B1B68002B4BD15C4A5F4F1146059201220A607F
:2051A0005A4A3B601370FFF725FF5F4E3060002800F0E68120685D4B514D5A8829791B8862
:2051C00002FB01F42D6894FBF3F1B5FBF3F203FB114103FB125289B292B20A4492FBF3F150
:2051E00003FB1122817C92B2114491FBF3F203FB12134F4A9BB2D35C4E4C4F4D1946E26A5E
:2052000001202B709047236A98473368002B00F0C98040F28E41494B3748002201801A803F
:205220004846FFF747FC012840F23681364B0593344BDFF820811B68314D002B7FF453AFE4
:20524000D8F82C204FF49933B3FBF2F23C4C642303FB02F321682A68294E521A9A427FF640
:2052600042AF0AF093FF58B1022300F8103B326823683021D31A334A0AF05EFD0AF0AAFF68
:20528000314B00221A6000F0C1FE40F2CA421A4900230A80059A0120136009B0BDE8F08FE9
:2052A0000630FFF707F95DE71B4CDFF8A8800AF051FA2268D8F80C301344C01A0028F6DB13
:2052C000DFF870B0DBF81850A847002800F0298101200F4E3368DB89012B00F02981022B7B
:2052E00000F01A81002800F0D9800AF033FA174F183838603FE000BFF8140020F41500200A
:2053000088410020FC15002058140020243E0020101500206C140020701400201C2501009A
:205320002015002038150020F0140020904100207841002004200100213E0020781400206D
:2053400014150020F82401003415002004150020F4140020484100200AF0FCF9D8F80C1099
:20536000D8F81820D8F828300A44216813440B44C01A002802DAA8470028EDD1DBF81C30AE
:205380009847002840F04E813368DB89012B00F0F781022B40F09B80854A864D13680133AB
:2053A000136062E040F29242DFF86CA28249AAF800300A80814801F001FF00B2411C40F02D
:2053C00088807F4ADFF8548213687A4D013313607FE6DFF848827B4FDFF844B2754D7A4C41
:2053E0007A4E0AF0B7F9D8F8141023683A680B44C3F106039A1AC242F3D4DBF808303088CC
:2054000098477348FEF7F0FD044618B1437B002B40F09380694801F0C3FE0AF0B7FE08B304
:205420006C4B01220270DA7B6B4902611A7CDC7CA2F10102B2FA82F209684477674FD1F865
:205440008840674E396804773478520941616549827780F8204093F820200B68C277836130
:205460000AF0B8FE604801F0CFFC554CFFF7DAFA2368002B3FF42DAE0AF088FE48B102234B
:2054800000F8103B594A236830210AF055FC0AF0A1FE002323601CE6002003E6A84710F0C6
:2054A000FF0F7FF422AF0AF055F9D8F80C10D8F818206FF017030A4421689B1A5B1AC342DF
:2054C000ECD43368DB89012B4ED0022B52D0394DCBE7474CDFF84481464A2568D8F80830E8
:2054E00000EBC0003C4E02EB00101D44D8F80C20414B306033481D6005602168023A3F4B55
:205500004846FFF795FA00283FF4D1AE40F261330020AAF80030C5E5394A13680133136097
:20552000E0E6DBF81C309847003018BF0120D0E6344A136801331360D4E6334F294B3A68D7
:205540001E6895E803007642831A87E803002046224F234C99B23246012323703E600AF026
:2055600083FC00F045FD55E7284A124D1368013313607AE7264A0F4D13680133136074E7A1
:205580002068037D9D073FF516AE224B1B68002B3FF44EAE18462360FFF72CFD3060002865
:2055A0007FF408AE2068037D9C077FF541AE02E67414002088410020F8140020FC3E0020B5
:2055C000D41500200415002080140020641400202415002084140020501400206C14002008
:2055E000243E00201C15002074010020E024010070140020043F0020CC150020B824010059
:205600007C140020EC14002014150020541400206814002020150020F41400204841002027
:20562000042001003368DB89012B00F0B480022B00F0AC80684CDBF8103025687F2128464B
:205640009847DBF82830C5F8880007A9092098472368624D03F1800295E8030082E80300A6
:205660005F4A079912785F4EA3F88C1083F88E20D3F888101846324609F03EFE002805DDD2
:20568000304609F0F3FC002840F08A800020564B18600AF07BFD50B10222236800F8102BBC
:2056A0009B78524A30210AF047FB0AF093FDDBF8303004224E490C2098472368D3F888301B
:2056C000DA1C50DB4B4A1B054B491A4481FB0213D217C2EBA3435B00434A484C126823607C
:2056E000002A3FF4C2AE4649464808F099FF002869D0454B3A681868F17C444B821A1A600B
:20570000384B00293FF47DAE002A9B7E404950DB01FB02F202F50042120C12B200920022C9
:2057200001927F213B4A3C480AF068FD3B4E002830607FF766AE81B2DBF80430364898476C
:20574000D8F814102268364B0A44083A39684846FFF76EF900283FF444AE40F20343002049
:20576000AAF800309EE41B0503F52113224A03F5F75382FB0312DB17C3EBA2435B00ABE7D7
:20578000284A164D1368013313606EE6264A1368013313604EE7254A13680133136049E736
:2057A000184A1C49304609F08FFC003018BF01206DE701FB02F24FF48030A2F5004292FB63
:2057C000F0F292B2A9E71A490E4808F029FF00283FF448AE8DE700BF501400208841002049
:2057E000213E00208414002030150020C82401000415002020A1370083DE1B43801400207C
:20580000E44B002008150020CC1500201C15002040420F00241500203C15002064140020B7
:20582000D4240100FC1400202C150020C414002090360100014B1868704700BFC8140020E1
:205840002DE9F041234D2B683BB9234E0120234C30602368CBB92B689BB10AF097FC0446B4
:20586000002833D0064602231D4D06F8103B0FCD20617160B260F3600AF0ACFC0020BDE8DF
:20588000F08128603360BDE8F08109F063FF07462368002BFCD109F05DFF2A6880460D4938
:2058A000002ADAD101240C6032600AF06FFC68B102230C4A302100F8103BC7EB08030AF0AC
:2058C0003BFA0AF087FC2046BDE8F0812046BDE8F08100BFC814002038150020581400206A
:2058E0003825010024250100014B00221A607047C814002070B4104C05796388026803FB14
:2059000005F523880D4C95FBF3F6B2FBF3F003FB165503FB1020ADB282B22A4492FBF3F078
:2059200003FB102292B2114491FBF3F203FB121189B2605C70BC7047904100207841002068
:205940002DE9F0431D4E83B000231D4A49F640411C48B14600F084FFDFF880801A4F1B4DA0
:2059600019E0BDF806C03468296814EB0C04184B1848D5F800E004D399F80420013289F8C7
:205980000420FA6A346002FB0CF202EB0E042C60FFF74EF870B9104A0DF106010748FEF75D
:2059A00073FFC8F800000028DBD101239C46ADF80630D8E703B0BDE8F08300BF88410020CE
:2059C000CD490000CC140020484100207014002048250100BC15002020150020101500206B
:2059E00030B4054603C9064B064A83E8030082E80300054B054C00221A60256030BC7047CB
:205A00008841002014150020101500207014002000207047F8B54FF6FF7009F087FA002297
:205A20008221184801F0E4F9FEF778FCFEF792FC0020FEF753FB144D1448154E0023FF27DD
:205A40002B601A46037103601249134C134D37704FF4E16301E034F8023FDB0303F5F42301
:205A600003F5907385FB0360DB17C3EBA04301325B000C2A41F8043BEDD1BDE8F8400AF0F4
:205A800087BD00BF74010020101500208841002044410020484100206825010083DE1B43A5
:205AA00040F2D722F0B5038883B09342044630D0B3F5367F22D340F2DE22934203D040F2DB
:205AC0000E3293422CD1464800F0FEFF28B3454B1B68002B34D1444D2968434E002963D10B
:205AE0004FF400613E4800F0D1FF40F20E333C48238000F0E9FF0028E9D10EE083B90C2111
:205B0000374800F0C3FF374B1B68ABB940F2D7232380334800F0D8FF38B9002003B0F0BD69
:205B200000230320238003B0F0BD2D4800F0B8FF2C4B1B68002BE9D02C4B1B68002B3FD0EE
:205B4000294D2B68002BCBD02948FEF775FB06460028C1D18DF8060009F0C2F831461020B5
:205B600009F032F909F088F80DF107030DF1060280210AF0E7FB071EAEDDB8B209F076F87C
:205B8000324631461A48FEF7E9FA064618B39DF8062039461748FDF749FD9DF807209DF8A1
:205BA0000630F273B37397E7A1EB9105FDF708FC33689B08B0FBF3F101FB1300411991E7DE
:205BC000FDF7FEFBC0F30A01054800F05FFF40F2DE23238077E70848FCF7ACF87CE700BF42
:205BE000B8160020F4150020D8150020FC15002060250100A4250100802501002DE9F04311
:205C0000054685B012200E4609F0F8F83D4B1B6893B93D4B1B685BB13C48FCF78BF83146B6
:205C200028460123042205B0BDE8F04309F05ABD3748FCF77FF8F2E73649044608F0F0FCA0
:205C4000002836D0344C0121102009F0BDF82046FEF7F2FA31498046112009F0C3F8304BAF
:205C60005B689847B0F1000934DB324629462046FEF774FA0746002830D080F80E90002C62
:205C80003BD0E579274B20461E78FEF7D5FA81463868BC7B09F034F9CDF800900290324646
:205CA0000194434629462048FDF7C0FC05B0BDE8F0831C4A0A201378591C11F0FF0104BF1E
:205CC000991CC9B2117009F07FF801210B2009F07BF8B8E71548FCF72DF8A0E77CB1E779C2
:205CE000104B20461C78FEF7A7FA22460090434639460F48FDF79AFC91E72546C2E72746DF
:205D0000EEE700BFF4150020E015002004260100C42501009036010058250100E44B002008
:205D2000B0360100263E00209C260100302601006026010070B52A4E84B001A9B46A04209A
:205D4000A04720B12748FBF7F5FF04B070BD0199F56A21F0030141F0040101910420A8476C
:205D600020B12148FBF7E6FF04B070BD02A90520A04750B90299052021F001010291A8471C
:205D800040B11A48FBF7D6FFDFE71948FBF7D2FF04B070BD0F210120A84748B9336B042219
:205DA00003A90C20984738B11248FBF7C3FFCCE71148FBF7BFFFC8E7FFF72CFEFEF7A6FB14
:205DC000FEF7ECFD0AF014FA04210C4801F0E2F910210B4801F0DEF90A4B01221A60B4E7BF
:205DE00004200100DC26010024270100BC27010074270100482801000C280100FC3E0020AF
:205E0000003F0020E015002008B5054B18B95B6A9847012008BD1B6A9847012008BD00BF9D
:205E20000420010038B50E4B1B6803B938BDFEF73DF9041D054608F053FF2146122008F051
:205E4000D1FF084B00219B68074898472CB1E97A0648BDE83840FDF7E9BB2146F8E700BF85
:205E6000F4150020EC360100295F00009428010038B5124B1C68012C02D00024204638BD45
:205E80000F4B1D68002DF8D129460E481C6000F0F3FE29460C4800F0EFFE29460B4800F0B9
:205EA000EBFE0B4B0B4A19680B4B0C48002914BF11461946FDF7BAFB204638BDE015002058
:205EC000F8150020740100209401002084010020FC150020AC280100B8280100C0280100D6
:205EE00070B50D4D2B6803B970BD0C4EA6FB0324A3EBD404FDF764FA2A680023A6FB021263
:205F0000D208B0FBF2F101FB1201054A21440548BDE8704000F0A4BC24160020CDCCCCCCD9
:205F2000255E00000016002038B508460C461146154602F0D3FA122008F060FF98B11220A6
:205F400008F05CFFC1792B4622460848FDF76EFB074B1B6813B9074B1B6803B938BDBDE862
:205F60003840FFF7BDBF0146EDE700BFD8280100FC150020F415002010B50023054C1A4669
:205F800082210548236000F013FFBDE810400348FBF7D0BEF415002084010020F8280100DD
:205FA0000349044B4FF4006208601A60704700BFFC150020D8150020014B00221A6070476C
:205FC000C8160020014B1870704700BF44410020014B1860704700BF24160020B0F5C85F74
:205FE000024B28BF4FF4C85018607047D8150020044B1B6823B9044B1B680BB1FFF770BF75
:20600000704700BFFC150020F4150020034B1B68012B00D07047FFF7AFBF00BFF4150020E0
:206020002DE9F04F0388B7B00446C3B140F2A32293420ED1B54800F047FD68B1B44D2B68D2
:20604000B44EDFF81893DFF818A306F1300BA8469BB100232380032037B0BDE8F08FAE4AD2
:206060000121AA481371136000F010FDFBF736FCA74DAA4B18602B68E2E7CDF81C80D9F805
:206080000030002BE5D1FBF729FCA54B07461B78A24D002B00F0DA802B68C31A0C2B00F20B
:2060A000D580DFF88082D8F820309847D8F81C309C4D1F469847002800F0E7809A4DD8F834
:2060C00010307F2128469847D8F83030C5F8880004220CA90C209847914BD5F888101A7865
:2060E0009248FDF7A3FA0DF12F024FF0000E0C9FD5F8881028468DE804401FAB0FAA089760
:206100000AF0CAF9002800F0DE809DF88C308848591C21AA9DF84D50017092E803007E4A03
:20612000012D82E8030000F04E81FF2B00F04F819DF88D507F48774A0DF18E01002D40F037
:2061400083800388DB0303F5F42303F590738AFB037EDB17C3EBAE435B00136004325A458F
:2061600000F1020001F10201E8D19DF8C430002B40F0AF80704A71491068714A0E900E9880
:2061800053800423086013809DF8A630002B40F0E9806C48FBF7CEFD654B1B781F2B00F2EB
:2061A000B08011A8FDF73CFF002800F0AA8011A8FDF794FFBDF85A0008F0B8FE089BB068CD
:2061C0005549181AFFF70CFC5F4D9DF84D200799D9F800302A6001220A600BB9FFF780FE53
:2061E0000AF0D4F9524B4C4A19784B4B10681B79019129680090BDF8A8009DF8AAE09DF8AE
:20620000C45004909DF88D00BDF85A20CDF814E0029003954D48FDF709FA11A808F080FCE9
:206220000A20FBF77FFD079B394D1B68002B40D1D9F80030002B7FF422AF344800F030FCD7
:2062400040F2A3232380F5E60B887BE73A4BDFF8D48018680D90FDF7B3F836AB00F0030093
:20626000034413F8A42C2E4B1B7893420BD01146D8F82C30012008929847089A284B0120ED
:206280001A70FBF74BF82F600DE7AB6998470028C9D009F05FFA3D460C9006E009F05AFA64
:2062A0000C9A2B4B9B1AC342BDD5A8470028F5D004E743465B6ADDF81C8098472B68002B53
:2062C0007FF4C7AED9E6D5F888102248FDF7AEF9A9E7BDF8C650102D6BD82A4632A9174828
:2062E0000BF01CFA4FF0FF33B3FBF5F305FB03F35B42B3FBF5F205FB1233114A5380158056
:2063000042E71548FBF716FD8DE700BFE4150020F415002048410020884100202016002095
:20632000273E00200420010028160020C02A010044410020682501005425010078410020E4
:2063400090410020D0290100C8160020202A010071FDFFFF14290100A42A0100FC1500205F
:2063600083DE1B43FEF7DCF99DF8AA20042A25DCBDF8A8109DF8A7000992FEF705F9099A2C
:206380000746002A3FF408AF1FAD062303FB025309936A8E2B8E95F8341038460192009392
:2063A00001220D4BFEF7F2F9099B06359D42F0D1F2E629460948FDF739F934E71146084883
:2063C000FDF734F92FE70748FBF7B4FC2BE70648FBF7B0FC27E700BF582501009C29010086
:2063E000EC290100382901007829010040F2BA222DE9F04F038883B09342834611D040F2B1
:20640000C322934247D08BB100230380032003B0BDE8F08F40F2BA232A4A00211180ABF8F7
:2064200000302848FFF7FCFD01283ED9264C2368002B3CD1254F3B68002BEBD0DFF89CA048
:20644000DFF89C90224EDFF89C80224D4AF6CD3008F06CFDDAF80000002301900198042185
:2064600001223180738088F800302260C9F8000008F056FD2B6801462A791748FDF7D6F879
:2064800009F068F91349FFF7ABFA23687BB93B68002BDBD1BEE70C4C23681BB1012003B04A
:2064A000BDE8F08FFFF7B6FAC1E70020AFE7FFF747FA40F2C3230120ABF8003003B0BDE819
:2064C000F08F00BFDC150020F4150020FC1500209041002088410020002B01005425010093
:2064E000784100204441002010B590B008F0D8FB3B2817D908F0C0FB044608F0D1FB3C38C6
:206500002044421E0DF103030DF13F0412F8011F03F8011FA342F9D1044B019A9A4201D1E6
:2065200010B010BD002010B010BD00BFBEBAFECA10B5254B82B09B68984700283BDB0A2071
:2065400008F04AFC4FF6FF73984217D009F06AF890B1112008F052FC58B3112008F04EFCF4
:20656000C4790A2008F038FC21460246174802B0BDE81040FDF75AB809F07AF8112008F039
:206580003DFCA0B1112008F039FCC4790A2008F023FC214602460E48FDF748F8FFF7A4FFC3
:2065A0000C4BDB68019302B0BDE8104018470446ECE70446D5E708F073FB0146064802B0D7
:2065C000BDE81040FDF732B8B0360100542B01007C2B0100EC360100382B0100F0B5038822
:2065E000BBB0054653B340F21A32934204D182292AD001203BB0F0BD0023038003203BB0A5
:20660000F0BD484E12E056F82040206808F054FC237B627BA168606809F064F82046FDF7CC
:2066200037FEFDF797FE404800F0D4FD3E4800F0DFFD00B2431CE6D109F0E4FC40F21A33E1
:2066400001202B803BB0F0BD384F394800F0D0FD00B2421CD5D000EBC00007EB0014D4F8DF
:206660008810204603AA08F047FE10F0FF0F07D09DF81C60012E07D09DF82430022B18D038
:206680002B4800F0A7FDE0E7B4F88810204608F037FBB4F88C10042008F096FB94F88E1039
:2066A000304608F091FB224800F094FDFFF740FFCBE7002EE4D11E4800F08CFD0123D4F85C
:2066C000881013AA0193009623AB204609F0E4FE0028BAD0FDF7EAFC0028B6D0011D15A817
:2066E00007F09EFF0028B0D0D4F880302599591A0DD19DF89C101F29A7D90E48FCF796FFEC
:206700000D4B1B68012BA0D1FFF736FC9DE70B48FCF78CFF084B1B68012BEAD1FFF72CFCA9
:20672000E7E700BFBC3E0020003F0020043F0020FC3E0020D42B0100F4150020A42B01009D
:2067400010B50446006830B1002100F095FA54F8040F0028F8D110BDF0B5038883B0054676
:206760005BB14A2B04D188291BD0012003B0F0BD00230380032003B0F0BD194800F008FC28
:20678000044630B1A168201D00F080F92468002CF8D1144B01221A704A2301202B8003B0A6
:2067A000F0BD0F48019200F0F3FB04460028F3D0019A031D9A4205D02468231D002CEBD010
:2067C0009A42F9D12146064800F036FC064E6269A369376832600BB1E06998473760DBE7A3
:2067E000CC160020283E0020D816002010B5064B002406481C7000F0C7FB2146BDE81040E1
:20680000034800F039BA00BF283E0020CC160020A401002070B504460D48049D0078A2615E
:20682000E361656130B9A1600A482146BDE8704000F0B0BB084D094B2E68201D2B6000F004
:2068400025F92E602146BDE87040024800F0A2BB283E0020CC160020D8160020A4010020DE
:2068600010B5044C82B024680094FFF7D3FF02B010BD00BFD816002070B5094B04461B7847
:206880003BB1084D084B2E6804302B6000F008F92E602146BDE87040044800F07BBB00BFA3
:2068A000283E0020D8160020A4010020CC16002070B5094B04461B783BB1084D084B2E68FD
:2068C00004302B6000F0F6F82E602146BDE87040044800F05FBB00BF283E0020D816002028
:2068E000A4010020CC16002010B50A4B04461B783BB9C36003612146BDE81040064800F0C5
:206900009BBB043000F0FCF82146BDE81040024800F092BB283E0020CC160020704700BF28
