:020000040000FA
:2000000000500020E9000000E1000000C9000000E5000000E5000000E5000000000000002E
:20002000000000000000000000000000E5000000E500000000000000E5000000E50000002C
:20004000C9170000E5000000BDBF0000E5000000750F000055140000E5000000E5000000C3
:20006000E5000000E5BF0000E5000000E5000000E5000000E5000000E5000000E500000099
:20008000E5000000E5000000E5000000E5000000E5000000E5000000E5000000E500000038
:2000A000E5000000E5000000E5000000E5000000E5000000E5000000E5000000E500000018
:2000C000E5000000792A0000044B1A68B2F5806F03D01B689B0500D4FEE7704728ED00E0D6
:2000E000FEE700BFFEE700BF08B509F05DFB104A104B9A420DD2D0430F4918440B4620F012
:2001000003000430084453F8041B834242F8041BF9D10A480A494FF000028842B8BF40F8AB
:20012000042BFADB00F0DEF8FFF7CEFF08BD00BF0000002098020020C4DE00009802002078
:20014000622F002010B50B4800F0B4FF0A4B01205C68A0470146094802F0D4FC0220A047AF
:20016000BDE81040C0EB401100EB81014911044802F0C8BCD4D9000008DC000000DA00009A
:2001800010DA000070B5048882B00546A4B140F281139C420BD1882924D02F4B1B788B42F3
:2001A00030D040F2811301202B8002B070BD00230380032002B070BD284800F07BFF284BD9
:2001C00001219B68812098472046264901F0AEFC01F0CEFC4FF42061234803F017FBFFF725
:2001E000B1FFDEE7204B9A42DBD10220019200F05FFAFFF7A7FF019A4FF42061104603F055
:2002000005FBCEE7194B9A4208D0194B9A4218D00132C6D1174800F04DFFC2E754680020FF
:20022000A04706460120A04731460246124802F069FC0120A047802809DC012000F038FA3B
:20024000AFE7032000F020FA00F028FFA9E70B4800F030FFF1E700BF5E2F002024DA000080
:2002600008DC000030DA0000C0020020CCDB0000E4DB000088DA000044DA000074DA00007A
:20028000F0B5002706463C463D4683B0304600F0FBF90195019B9C4206DD00BF019B013332
:2002A0000193019B9C42F8DC304600F0F7F90195019BC4F5C874A34206DA00BF019B01338B
:2002C0000193019BA342F8DB0137B7F5487F06D0B7F5C87FCCBFC7F548743C46D6E703B0CD
:2002E000F0BD00BF2DE9F041744C86B02368012173485B6898472368012211461B6870480B
:20030000984709F021F901F077FA01F00FFA00F0E9F901F047FA00F0ADF96A496A486B4ADB
:20032000012303600B6018461368FFF7A9FF09F00FF900F093FD00F001FD03F031FC00F0D5
:200340005DFE03F07DFB41F2342002F0ABFA01F04DF803F0C7FC5E4800F0ACFE4BF2AC7232
:2003600000215C4802F0CEFB5B4800F0A3FE09F04FF85A4C5A4D10F0040F14BF27462F4674
:2003800009F04EF801280CBF26462E4609F040F810F0020F14BFA046A84609F039F810F037
:2003A000080F08BF2C4632464346009439464D4802F0A8FB00214C4803F01EFB03F0D6F82D
:2003C00003F06CF90220FFF75BFF484802F09AFB474B484C186800F06DFE474802F092FB2D
:2003E000464B186800F066FE454802F08BFB2168444802F087FBE469A04720B1A0470146D7
:20040000414802F07FFB0A2000F04CFE00260AF0D3F904A808213D4D3D4F039600F082FEA3
:200420009DF817309DF8164004AA03CA43EA0424D7F82C802860696002204AF6CD31C047F2
:2004400021460320C04719210120C047082204A97B6B0B209847BB6A03A901209847039975
:200460002C4802F04FFB2C4B21462C481C8002F049FB2B4B6A6829685A6019600AF00CFB9B
:200480003146284803F0B8FA0220FFF7F9FE3146254803F0B1FA254803F012F800F0BCFD2C
:2004A0000120FFF7EDFE03F0E5FA044600F0E8FD14F0FF0FF7D101F001F8F4E7D8010010C1
:2004C00000400340080009400C4009402C200940A8DA0000CCDA000030DA0000A0DA000072
:2004E000A4DA0000E4DA00002401002018DB0000A4DD00000CDE000020DB0000DCDD000069
:2005000028DB000030DB000034DB0000282F0020A8DC000058DB0000A02400206CDB000065
:20052000582600205801002010000020CCD900002DE9F04104880646772C30D07E2C27D06C
:2005400024B1002303800320BDE8F08103F04CFA2F4F304B304D3A6818702C60002A55D033
:200560002346A0462D4C04F8038093680021802098472B68013357F823202B60002AF2D1C8
:20058000DBB2274A1370772333800120BDE8F081204B1B788B421CD00120BDE8F081DFF891
:2005A00080801D4D98F800201E4F00233B602B60002AE8D0194CE256002A18DB2B6898F8AC
:2005C0000020013393422B60F5DB3B68002BECD1D9E7114D114CDFF84880124F2B683A685C
:2005E000E15C013201F07F01E1543A60E7E7084A084952F823200978002003F099FA0028FE
:20060000ECD17E2333800120BDE8F0811346B8E7340000205E2F0020D0020020D42400208F
:20062000B0240020D402002010B40E4B1C7864B10D4A1368984213D0002303E052F8041F08
:2006400088420BD00133A342F8D1084A0848135D63F07F03135510BC03F096BA1C46F4E778
:200660000024F2E7B024002034000020D42400201000002008B500F07BF8024B00221A70D4
:2006800008BD00BFB1240020034A137803431846137000F087B800BFB1240020034A137827
:2006A00023EA00031846137000F07CB8B1240020034A137843401846137000F073B800BF1A
:2006C000B124002010B5064C042023685B699847236804205B6B98470128F9D110BD00BFE9
:2006E000B8010010F0B593B008F02EFF0746FFF7E9FF194B4FF4A0601B68DB699847174B4A
:200700000121174A196013689907FCD500F0FEF9144800F0FFFF4822684613490DF000F857
:20072000009C621C0FD06D46104E336820469B6B9847336820469B694FF40051984755F804
:20074000044F631CF1D10FB113B0F0BD13B0BDE8F04008F0FDBE00BFB80100102820086052
:20076000282008402000002084DB0000B4010010094B1A6802B1704710B50122074C1A6090
:2007800023680620DB6B984723680720DB6B9847034BC0221A6010BDD8020020B401001076
:2007A000A0200240074B0849C02208701A60C20744BF402243F8102C830702D5034B8022CA
:2007C0001A607047A0200240B22400209020024008B5034B1B685B689847C0F3804008BD96
:2007E000B401001028B1012806BF054BD86800207047044B1868C0F3403080F001007047EC
:20080000EC020020C020024028B1012806BF054BD86800207047044B1868C0F3803080F0D8
:2008200001007047DC020020C02002408138012801D9002070470D20FFF7CABF81380128BF
:2008400001D9002070470E20FFF7C2BF802870B514460AD0812807D1E1B9BDE87040184B6E
:2008600010461B685B6B184770BD154D1549012393402A680B60936B204698472B6820465D
:200880000021114A1B689847E0B21049BDE8704000F072BF0A4D0B49012393402A680B607A
:2008A000936B204698472B6820461B68064A002198472B682046BDE870401B6B184700BF37
:2008C000B4010010E020024000400720E908000008B50D22FFF7BAFF012008BD08B50E224B
:2008E000FFF7B4FF012008BD0D2838B51BD00E2800D038BD1B4C204603F092F90028F8D026
:200900000421204603F078F9174B1D68C5F38035C5B100F05FFAA368C31AE3601348BDE8AA
:200920003840FFF781BE124C204603F079F90028DFD00421204603F05FF90B4B1D68C5F3A1
:20094000403525B900F046FAE560A06038BD00F041FAA368C31AE3600648BDE83840FFF723
:2009600063BE00BFDC020020C0200240E4DB0000EC020020CCDB000030B51C4A1C4B1068D9
:2009800083B000244FF48015042101908DF800408DF801400DEB01001D6000F0D3F820B9DD
:2009A000144BFF201D6003B030BD0221684600F0E7F8104B1D6010B9FF2003B030BD9DF807
:2009C0000030EF2B03D0C22B01D02046EBE79DF80100A0F11103012B05D9143801288CBFFF
:2009E00000200120DFE70120DDE700BFF4DB0000A02002409020024030B5164B83B002AC62
:200A000005224FF4801504F8042D1D6000F0DCF82046012100F096F820B910E09DF80730CE
:200A2000DB0710D501210DF1070000F0A9F80028F4D1094B4FF480121A6003B030BD064BB6
:200A40001D6003B030BD044B4FF4801201201A6003B030BDA02002409020024030B583B00E
:200A6000FFF7CAFF08B903B030BD0E4B02A8B9224FF4801500F8012D01211D6000F062F891
:200A8000094B0A241D60FFF777FF631E0028EAD013F0FF04F7D1044B4FF480121A6003B069
:200AA00030BD00BFA02002409020024010B50A2182B0124800F09AF8114B14201B68114C28
:200AC000DB6B9847104A4FF48013AB2102A8236000F8011D1360012100F034F808B1FFF752
:200AE0008BFF084B4FF480121A60FFF745FFA0F10100B0FA80F0400902B010BD00093D00D6
:200B0000B401001090200240A020024008B5FFF7CDFFFFF7A3FFBDE8084000F0C7B800BFEA
:200B200008B5064B02201B685B6B9847012803BF034B186800F00100002008BDB801001005
:200B400078200840F0B583B005460C46FFF7E8FF074680B17CB1094E336815F8011B5B68DA
:200B60004FF080409847336801A9DB684FF080409847013CF0D1384603B0F0BDC401001080
:200B8000F0B583B005460C46FFF7CAFF0746B0B1ACB10C4E09E033684FF08040DB68984717
:200BA000019B013C05F8013B09D0336800219B684FF08040984701A90028ECD10746384653
:200BC00003B0F0BDC401001010B582B0FFF7A8FF40B1054C236801A91B694FF08040984773
:200BE0000028F7D102B010BDC4010010F0B5264D07462B6885B002205B690E4698472B68D8
:200C000002205B6B9847012804461F4BF7D11B684FF48070DB6998471C4B1D4A1C601368CA
:200C20009B07FCD51B4A1C4913681C484FF0030E082523F00F030C4609681360C0F800E028
:200C40000023019500971A460F684FF080401449B847144B29461B6800965D6C09224FF0F8
:200C6000FF334FF08040A8470F4A136843F002031360236803A91B694FF080409847002814
:200C8000F7D105B0F0BD00BFB8010010282008602820084014000040C401001020000040D9
:200CA000006CDC02B40100100400004010B5174B4FF480701B681B6A9847154B0121154ABF
:200CC000196013689B07FCD5134C082023689B6B984723684FF400519B6908209847236801
:200CE00009209B6B984723684FF400519B690920984723680A209B6B984723684FF4005102
:200D00009B690A20BDE81040184700BFB80100102820086028200840B401001010B5064CAD
:200D2000042023685B699847236804205B6B98470128F9D110BD00BFB8010010F8B51A4AB4
:200D400000200021C2E90001184B04201B685B6B9847012801D0FFF7E1FF144B00201B6825
:200D6000DB699847124B0121124A196013689B07FCD5114A11491368096823F4807323F050
:200D800001030F4C13600B6820460E49984740F221200D4D0D490E4B0427312601222760CA
:200DA0002E6008601A60F8BD98020020B801001028200860282008400C000140C801001025
:200DC00000000140002100043C000140080001400400244310B40949094C0B6822680868A4
:200DE0008342FAD1DB01074903EB52620023C1E9002310BCD1E90001704700BF0820094037
:200E00000C2009409802002010B50B490B4C0B68226808688342FAD1DB01094903EB526266
:200E20000023C1E9002302F019FD00B910BDBDE8104002F0E5BC00BF082009400C20094007
:200E40009802002010B508F07FFB034B1C6808B908F07EFB204610BD082009402DE9F041B2
:200E600008F072FB1D4E1E4B1E4F32680124002580464FF480314FF480703D601C6018606A
:200E800019601368284623219847336820461B6824219847336825211B6802209847124A64
:200EA0001249136843F4E02313600D6008F09EFA0F4B1049104A1B6800F5007008601460E1
:200EC0003C601B6914209847B8F1000F01D0BDE8F081BDE8F04108F03BBB00BF8401001028
:200EE00004200940000024430020094008200940B00100101C200940A0022443431E012B68
:200F000010B419D9042801D010BC704700231A4610F004001CBF0E4C216013B10D4B012120
:200F2000196012B10C4B01221A600028ECD00B4B01221A6010BC704710F0010302D0084AFF
:200F40000123116010F00202E2D0064C2160DFE72020094080022443A0022443C002244309
:200F6000182009401C200940014B1868704700BFFC02002008B50AF0F9FC184B1860FFF78E
:200F800043FF174B1B686BB9164B1B68E3B9164B1B6833B11549164B00204FF48032086082
:200FA0001A6008BD124B4FF480721A6008F01EFA00F205200F4B20F4FF7020F00100186059
:200FC000084B1B68002BE2D00B49094B0020012208601A6002F0FCFDD9E700BFFC02002009
:200FE000A000244380002443C0002443C0022443042009401C200940800224430349044840
:20100000044B012208601A60704700BF00000840FFFF0F00000C0840F8B508F095FA124ACD
:20102000B0FA80F01368012B0BD0104C104D1149114A0123400925600B601360C3070FD429
:20104000F8BD0E4F094D0A4E0A4C0B49400940F0020017602E6023600B601360C307EFD5B7
:20106000BDE8F84008F074BA000C084000000840FFFF0F000C0008400401004351E5CC1A0C
:2010800003490448044B012208601A60704700BF00000840FFFF0F000C00084008B5FFF792
:2010A000BBFFFEE710B50446C0B200F0B3F9204610BD00BF70B506460024451E04E015F899
:2010C000010F00F0A7F9013430460CF051FCA042F5D80A2000F09EF900F0B0F90128FBD08F
:2010E000204670BD70B50446B0B10078C0B1A9B10025661804E014F8010F38B1B44205D0F3
:2011000000F088F9631C05F10105F4D100F096F90128FBD0284670BD0546F7E70D46F5E7B8
:201120000546F3E710B40B4B0B4C13F8012FFF2A0DD1A342F9D1094A39B111440138013923
:201140000B78914200F8013FF9D110BC7047044AF2E700BFC7FF0100CFFF0100F0120050E6
:20116000C8FF010080280BD0812806D141B9084A084B1160084619607047064B186870478E
:201180000349044A0123032008601846136070470050094000030020813801289ABF024B3A
:2011A00018680020704700BF00030020064B1B6833B1012806D002280ABF044B00231B6857
:2011C0001846704708F0FAB8000300202850094038B50C4D02202B685B6998472B68022019
:2011E0005B6B984701280446064BF7D11B684FF40070DB699847044B044A1C6013689B072F
:20120000FCD538BDB801001028200860282008402DE9F04340F2F275DFF8DC8083B0FFF7C1
:20122000D7FFD8F800302A4EDB682A4898473368294C5B69152098472368DFF8C090274FBC
:2012400023F4FE63D9F8002023F0020323603D60D36B032098472249D9F8003008201222E5
:2012600008600092D3F840900322132302211948C847D8F800206023D2F8048019494FF485
:20128000E1321448C04740F2011240F2013E1649164B142008601968154841F0100119602D
:2012A00003681449002B0CBF134673460B603D60036853B12368326843F05003236013693D
:2012C000152003B0BDE8F043184703B0BDE8F083B0010010001000403810004044100040F7
:2012E00090200240006CDC02341000402C1000400403002030100040D0010010B401001065
:2013000008B5064B02201B685B6B9847012803BF034B186800F00100002008BDB80100101D
:201320006C20084038B50446FFF7EAFF18B1254A13681907FCD4032C03D0234B1B6803B179
:2013400038BDFFF7DDFFE0B9204D4FF400702B681B6A9847032C2AD01D4B01211D4A196083
:2013600013689B07FCD5032000F0F0F9022000F0EDF9132000F0EAF9BDE83840122000F046
:20138000E5B9154B15481B68DB689847144B15201B685B69984740F2F270124A12491368CD
:2013A00023F4FE6323F0020313600860CCE72B684FF400709B6A98472B684FF400701B6B19
:2013C0009847C9E71810004004030020B80100102820086028200840D001001000100040B5
:2013E000B0010010381000404410004010B508F0ABF80446054800F08DF9054B00221A60B7
:2014000004B110BDBDE8104008F0A2B8400000200403002010B50446FFF772FF08B9FFF74F
:20142000F7FE044B2146BDE810401B680248DB69184700BFD00100100010004008B5FFF7F9
:201440005FFF18B1024B1868C0F3C00008BD00BF1810004038B5FFF7BBFE40F2F2710C4BB1
:201460000C4A1B68116013F0500F10D00A4C0B4D05E02B681B699847094B1B6823B9236819
:201480000848DB06F5D538BDC0B29847F7E738BD401000404410004018100040D0010010CB
:2014A0000403002000100040034A136823F00403136030BF704700BF10ED00E070B508F001
:2014C00043F802F02BFB18B1BDE8704008F040B8804802F01DFC0225044648B1636823B1CF
:2014E0009847A84228BF2846C5B22468002CF5D10AF03CFA784B04461B68002B40F08980B5
:2015000002F0ACF9002840F0B2800346012D00F09380022DD8D1002840F0C780611E2846CC
:20152000FFF7ECFC6B4802F0F3FB0625044600287BD0A368022003B198472369246825EA6B
:201540000305002CF5D1FFF79BFD6B0705F006046ED4002C40F0A38000F0A8F900200AF026
:201560003BFA5E495E4A0B685E4823F003030B601368016843F00F0313608B693920984782
:20158000594A5A4900231360184613600B6008F0F3FB062C00F08E80554C564D564E2B68A2
:2015A0002368326823F00303236053680321534898474C4B1B689B6B98472B6808F00CFD7E
:2015C0004F4A3368002111604C485B680121984723684C4A012143F00303236011602B68EA
:2015E00008F032FD0AF0C4F9FFF70EFCFFF748FD384802F08DFB044628B1E36803B19847D7
:201600002468002CF9D107F0A3FFBDE8704007F09FBF3D4B1B681B1A022B3BD4A3F28F2342
:20162000002BBFF66DAF012335E0FFF729FD0624344B00221A608CE7002842D06FF00702FF
:20164000121BDA423AD404F58031CA1A11EA220138BF19460220FFF751FC2C4A136823F0C8
:201660000403136030BFBDE8704007F071BF02F0FDF80646FFF7AEFB361A002E7FF724AFEC
:20168000FFF772FC224A00EB4623121BDA421BD401203BE700239D4228BF1D4630E7114BEC
:2016A00020461B689B69984756E719462846FFF725FC37E7022007F0EDFF6DE704F10801C8
:2016C000C8E704F58031C5E7022DB7D0012D7FF4FBAEB3E7080300208002244300100940FE
:2016E00008100940B80100104010094020042243242208402C200940D8010010004003400F
:20170000800104430C4009401820094010ED00E071FDFFFF0146014802F0FCBA080300203F
:201720000146014802F048BB0803002010B5054802F0EAFABDE81040034B20211B680320E7
:201740001B6818470803002084010010431C0ED010B50446064B4FF4C0421B6800211B68DE
:201760009847044AA3001A430023136010BD7047B4010010001A444238B504460D4607F03C
:20178000E3FE01230549064AA3400B6042F8245000B138BDBDE8384007F0DABEE020024016
:2017A0000C030020064B002103F1800243F8041F9342FBD1034B10201B681B69184700BF70
:2017C00008030020B0010010F8B5094B094F1D6800241D60012606FA04F32B42E0B203D0AE
:2017E00057F8243003B198470134202CF3D1F8BDE02002400C03002000B585B000224123D8
:2018000002A8029203930AF0C7F8042007F032FF032810D00321042007F004FF042007F087
:2018200029FF0328FAD100901C234FF040520021044807F0ABFE02A80AF004F905B05DF832
:2018400004FB00BF00A00C4000B583B00022412368468DE80C000AF09FF8012007F00AFF8F
:20186000012803D00121032007F0DCFE68460AF0E9F803B05DF804FB00B583B00022412358
:2018800068468DE80C000AF087F8012007F0F2FE012803D0044B986B07F07AFD68460AF034
:2018A000D1F803B05DF804FB4800001010B582B0412368460024019300940AF06DF8032029
:2018C000214607F0AFFE012007F0D4FE18B1044B986B07F05DFD68460AF0B4F802B010BDD4
:2018E0004800001040F205122DE9F04F03888BB09342044628D040F27B12934206D0BBB13F
:201900000023038003200BB0BDE8F08F7B4801F09BFF00B37A4D7B4F2B680133092B2B6007
:2019200046DD07F011FE00233B7008B907F010FE754B7248196801F069FF40F2051301202B
:2019400023800BB0BDE8F08F6C480D4601F07CFF28B9832D05D001200BB0BDE8F08F832D7C
:2019600003D1002323800220CDE7684E4022002130460BF0AFFF022101221A2364483170CF
:201980007270B3700BF0F4FF8146451C09234A46F570701D5E49DFF89081594D3371594FFD
:2019A0000BF0BEFE09F105030022C8F800302A6007F0CAFD01233B7000284ED00AF082F88B
:2019C000814600283FD0534B9B6998470028A8D10AF0E0FA49F2303604A840F60202182153
:2019E0000AF0C4FA9DF820304B4A03F0F8036FF3C30304A803A94FF0000A8DF82030ADF884
:201A0000226009928DF81EA00AF064F801282FD002A942480AF05EF8B9F1000F20D00AF0C0
:201A2000C3FA0C21354801F0F1FE07F08DFD00233B70D0B12B68082B3FF76FAF40F27B13B5
:201A4000012023805FE7FFF7FFFE0AF015FA01287FF467AFFFF710FFBCE707F079FDADE725
:201A60000AF072F9FFF722FFDBE707F071FDE1E704A80AF079F80128CAD1244E25238DE8F1
:201A800050001E46DFF8A080DFF894B0202200212348D8F80040CDF810A0CDF814A0CDF8EF
:201AA00018A0CDF81CA0CDF824A00BF013FF41F6050E1C4B0122CBF81030019B03A904A88C
:201AC0008BF80640CDF820B08DF81E60CBF80830ADF810E08DF81D208BF81B20CBF81C2096
:201AE00009F0F8FF08B9009C92E704A80AF03CF80128F8D10136282EC8D1F4E7B40300207C
:201B00008C030020B324002064000020C403002068000020A8DC00008800002001000204F9
:201B2000940300202E2F00209003002038B50546A9B10B780C4623B108460BF019FF1F28DB
:201B400000D938BD2022002107480BF0C3FE20460BF00EFF2146024603480BF0E1FD002DDB
:201B6000EFD0024B1D6038BD680000206400002008B507F04DFC00F0020303F0FF0013B133
:201B8000064B187900B908BD0023054A19460548137001F031FF012008BD00BF64000020FA
:201BA000B324002054000020014B1878704700BFB324002008B509F085FF30B1044B5B8824
:201BC000022B14BF0220012008BD022008BD00BF3C04002070B582B009F074FF40B901A991
:201BE000134809F077FF01280AD0002002B070BD0F4C6388022B08BF0120F0D102B070BD1E
:201C000009F0B4FE0A4C00F1400504E009F0AEFE401B002809DA6088054E0228F6D1A0F1E1
:201C20000200B0FA80F04009E8E77088F7E700BF3C04002008B5B32994BF0A46B422014622
:201C400002480BF06DFD002008BD00BFBE04002030B589B002A840F6020218210AF086F99B
:201C6000124A9DF81830126803F0F8039588104C6FF3C303012202A801A9ADF81A508DF817
:201C8000183007948DF8162009F024FF012802D0002009B030BD02A809F066FFA0F101002F
:201CA000B0FA80F0400909B030BD00BFA4000020BC00002008B5FFF7CBFF012801D0002025
:201CC00008BDFFF787FFC0B208BD00BF70B50E4D0E4E2C68002006E02379022B06D024682C
:201CE0002B689C420ED02379032BF5D133780120002BF4D1064801F047FF24682B68012084
:201D00009C42F0D170BD00BF2C040020B62400202802002030B583B00AF022F9044609F034
:201D2000D1FE08B903B030BD01A90A4809F0D2FE0128F7D109F01AFE00F1400504E009F099
:201D400015FE401B0028EDDA638803F44063002BF5D0E7E7010001040B2807D00C2801D0CE
:201D600001207047042A11D002207047082AFBD10029F9D0094B0139A3F1080013F8012D50
:201D8000834201F8012FF9D1002070470029EBD0034B00201B680B60704700BF6C0400206E
:201DA000CC07002042F2034310B584B0002402A801A902940394ADF8083009F08BFE20B1E8
:201DC0009DF90A30803302D0204604B010BD9DF80C0000F00C00A0F10400B0FA80F0400932
:201DE00004B010BD30B583B009F06CFE68B3184C6388022B03D028E0FFF7D4FF18B109F0EA
:201E000061FE0028F8D101A9124809F063FE09F0ADFD00F1400507E06388022B08D109F06A
:201E2000A5FD401B002803DA09F04CFE0028F3D142F202426388934207D042F20740181AB5
:201E4000B0FA80F0400903B030BD012003B030BD3C040020010001040B2801D0012070477C
:201E6000082A01D0022070470029FBD0104B083103F1080011F8012D03F8012F8342F9D111
:201E800010B509F01FFE88B10A4B5B88022B0CD1FFF7A8FF01280CBF00240324FFF79AFE82
:201EA00001280CBF2046032010BD002010BD00BF630400203C04002030B585B009F002FE32
:201EC00018B1104B5B88022B02D0FF2005B030BD4FF0000242F2034563F301028DF80C2074
:201EE00000249DF80C0000F00303022BEED101A902A802940394ADF8085009F0EBFD0028B4
:201F0000EFD1E2E73C04002070B5044609F0DAFDC8B1184B5B88022B20D107F015FB05466A
:201F200094B9154B154C1E68002116F1804022684FF0000341F10001994208BF90420FD3D0
:201F400026603DB1012070BD0B4A0C4B12681A60002DF7D107F0FCFA012070BD002070BDA2
:201F600009F004FD064A07491368086001331360E6E700BF3C040020043004408405002030
:201F800038040020A806002008B5FFF70DFE012814D009F097FD88B1094B5B88022B0DD144
:201FA00009F090FD30B9FFF787FFFF2806D0C0F3801008BDFFF7F6FE0028F4D0002008BD76
:201FC0003C04002008B502E0FFF7ECFE18B109F079FD0028F8D1FFF705FF09F0B5FEFFF75D
:201FE00065FC0E4B0E48197900220229428012D00C4B1A79022A04BF00221A710A4B1A79E0
:20200000022A04BF00221A71084B1A79022A04BF00221A7108BD1A71EAE700BF8805002015
:202020003C040020180600203C070020AC06002008B5FFF7B9FD012801D0FFF7C3FF012091
:2020400008BD00BFF8B5FFF7AFFD012830D0FFF7FBFB09F037FD38BB1E4A1F481F49204BD6
:2020600092F805E047794E795D79012464F3830E64F3830764F3830664F38305882482F8C1
:2020800005E0106047710160C480D480CC804E710B601A60DC805D71FFF7EEFB09F0ECFE5E
:2020A000012807D00020F8BD0E4B5B88022BD3D10120F8BD0C4B1878003018BF012009F060
:2020C000F5FEFFF7C5FD0128ECD1BDE8F840FFF781BD00BF88050020180600203C07002051
:2020E000AC0600203C040020B624002070B584B0072800F2A980DFE800F01D5F242D305A03
:202100006904524C217709F0DDFC00B36388022B1DD1FFF767FE012814BF0324002409F0F6
:20212000B9FE012876D0FFF755FD012870D0032004B070BD01297BD000296FD0022004B011
:2021400070BD424C618609F0BDFC0028DED1002004B070BD3D4C2186D5E731F00702EDD17F
:202160003A4C3B48237EC1F3400561F30003DBB243F00203067865F38203657EC1F380012D
:2021800003F0870362F3C71362F3C7158E42657623760170B7D12F4B228B184603A95A801A
:2021A00009F098FC002814BF00200320C0E731F00103C3D1C8B2BBE7A1F10B030F2BBDD869
:2021C000224CA37B9942C2D0A1739CE701F115031A2BB3D8204A6FF014030C2401E052F85A
:2021E000343099422ADD14F1FF34F8D209F06AFC00289DD0184B102203EBC404A38802A982
:2022000003A8ADF80E30ADF80C2009F063FC9EE720468DE70020FFF777FE84E70191FFF72A
:20222000C3FC012893D0FFF7CDFE019908467FE7FFF708FF01287FF47AAF88E7064B074A71
:2022400003EBC4031360D1E7012071E73C040020B62400202404002040DC0000A4000020A3
:2022600081B1F0B50C4685B0102800F29C80DFE800F087827D78615E945828221D9A9A19A6
:2022800015100B000220704705230B60002005B0F0BD6FF014030B600020F8E71A230B6098
:2022A0000020F4E70B230B600020F0E7494B00201B780B60EBE7484B00201B785BB20B6051
:2022C000E5E709F0FFFB00286FD0444B5B88022B08BF002769D14FF000030222002562F331
:2022E0008303039502958DF80C3042F2034609E001A902A802950395ADF8086009F0EAFB94
:20230000002858D09DF80C3003F00C03082BEFD0002F58D19DF90A3023608033C4D1032092
:20232000B5E72E4B002093F91C300B60AFE700200860ACE70023294A0B60137E03F00103EB
:202340000B60127E520744BF43F002030B60244B1B78002BA8D00B68002043F004030B60A6
:2023600095E71E4B00201B8E0B6090E71B4B00205B8E0B608BE7194B00209B7B0B6086E70F
:2023800009F0A0FB30B1154B5888A0F10200B0FA80F040092060002079E7124B00201B6892
:2023A0001B680B6073E7012071E7FFF74BFE012805D107468FE780238DF80A301FB96FF0C2
:2023C0007F032360ABE7FFF7EFFB0128A2D0FFF7F9FD9FE7B5240020B42400203C04002028
:2023E000B6240020A400002070B588B0054609F069FB002851D03E4B5B88022B08BF00264B
:202400004BD109F0B3FA6FF01F04241A07E0FFF7C9FC012848D109F0A9FAC44246D509F0A0
:2024200051FB0028F3D102A842F60142182109F09DFD304C304B0022EDB28DF81750217836
:20244000069304929DF81430891A18BF012162F3030301208DF8143009F062FD02A801A9E7
:2024600009F038FB30B3207801E0002835D0BDF80A3003F44063002BF7D0BDF80A40A4B2D7
:20248000B4F5105418BF0124003018BF012009F05BFDC6B9204608B070BDFFF7D3FD012801
:2024A00019D0012008B070BD0028BCD0C6B9022008B070BD20780124003018BF012009F015
:2024C00043FD002EE6D0FFF76FFB0128E2D0FFF779FD2046E6E7064693E7FEF7E5FFC2E7B6
:2024E000FFF762FB0128E2D0FFF76CFDDFE700BF3C040020B6240020BE04002010B50C4677
:20250000B32998BF2246014688BFB42203480BF007F92046BDE81040FFF766BFBE0400201E
:2025200010B5FFF741FB012824D009F0CBFAB0B11B4B5B88022B03D011E0FFF733FC18B140
:2025400009F0C0FA0028F8D1FFF7B6FCFF2811D000F0030010F1FF3018BF012010BDFFF749
:2025600071FD0128044607D0FFF71EFB012801D0FFF728FD012010BDFFF79EFCFF2805D005
:2025800000F0030010F1FF3418BF0124FFF70CFB012803D0FFF716FD204610BD204610BDB0
:2025A0003C0400202DE9F043584D83B080460F462E6809F0DBF9564C241A03E009F0D6F991
:2025C000C44208D53379022BF8D0032B06D0002003B0BDE8F0833379032BF8D12E684B4ABA
:2025E000337A032B07D996F808905FFA89F9A9F10804BC4207DD3368002013603071307226
:2026000003B0BDE8F0834046224606F109010BF087F809F10303F35CDFF8148109F10402CB
:2026200088F8003009F10509B35C56F80900394F03F03F0301903B70019E09F043FA002886
:202640004BD0354B5B88022B08BF4FF0000944D109F038FA48B1304B5B88022B05D1002006
:20266000FFF752FCB9F1000F48D12C4BB6F1404FD3F800900BD909F079F9294B1B68C3F142
:202680007E4303F57203C34248BF09F1FF396FF4BF708019234E4FF0FF31366841F10001F2
:2026A0000022801B61EBE671121849EB0103190241EA12611002002343F609520AF06EFE70
:2026C000194B1A4A1B78106063B12B6800221968204629601A721A717AE7FFF7B3FC4FF09A
:2026E0000109B5E798F80010042049B289B208F0A9F93978032008F0A5F9E6E7FFF754FA25
:202700000128B2D0FFF75EFCAFE700BF34040020FAFEFFFFB52400203C0400203804002066
:20272000A80600206C1E0020B6240020CC070020B424002010B509F0C5F980B1144B5B884D
:20274000022B0CD10020FFF7DFFB0446BCB9BDE8104000230F4A80210F4800F041BFFFF771
:2027600071FC0128F3D10020FFF7CEFB0446FFF71BFA0128EAD0FFF725FC002CE7D0BDE849
:2027800010400023034A4FF48731034800F028BF3C0400203527000004040020F8B5304F4C
:2027A0003048FEF7B7FF09F045FB3846902200210BF090F8902200212B480BF08BF8902273
:2027C00000212A482A4C0BF085F89022002129480BF080F8284E294B00252946802220463B
:2027E0001F60376075600BF075F842F6010E42F20200072202236376227621491922214B39
:20280000278B2661A273B9266F22E6736161E276FF210122A626A4F800E026775F801971F6
:20282000A176627384F837201880FFF70BFC012802D02C462046F8BD0446134809F0A4FB7F
:202840002046FFF761FB2B46104A4FF48731104800F0C6FE29460F4801F0CEF82046F8BD56
:2028600088050020A8000020180600203C0700203C040020AC0600202C0400203404002068
:202880007405002024040020E0DC000035270000040400202802002008B500F08BF880B26B
:2028A00008BD00BF00F010B938B50C4D04202B685B6998472B6804205B6B9847012804466C
:2028C000064BF7D11B6840F20140DB699847044B044A1C6013689B07FCD538BDB801001001
:2028E0002820086028200840034B1B68002B14BF01200220704700BFD0070020F8B50388E1
:202900000446002B2ED0B3F5847F05D1184B1B788B4205D00120F8BD002303800320F8BDD7
:20292000144D2B6873B1144B144A1B6812685B680220174698470026301847F100012B686A
:2029400098472E600E4B40F201401B689B6A98470C4B01210C4A196013689B07FCD50B484E
:20296000FEF7DEFE4FF4847323800120F8BD00BF96020020D0070020CC01001004800240C2
:20298000B80100102820086028200840E800002008B5064B04201B685B6B9847012803BFE1
:2029A000034B1868C0F34000002008BDB80100103C20084070B5274B1B689BB1264C002309
:2029C000224612F8011B29B90133042BF9D10020014670BD214A002502EBC302E55492E8D1
:2029E000030070BDFFF7D4FF00282FD01C4A1D4B1268134073B91C4A0121134611601A681C
:202A0000002AFCD110464FF4807107F05BFB174B01221A6006F098FD0646114A1368DB075A
:202A2000FCD5134B134A1B6814685B680220984723460022141843F1000516B120462946BB
:202A400070BD06F085FD2046294670BDFFF72CFFCCE700BFD0070020D4070020A002002088
:202A60000880024001000080F09F0240A8025042CC0100100480024038B50E4D00240E4A97
:202A80002C6013680D4923F00103096813604B6931209847224620464FF4807107F012FBF4
:202AA0000122074B2A6019782246BDE83840054801F03EB8A80250420C800240B001001002
:202AC00096020020FC00002010B5074C2378802B00D010BD00F088FF207000210348BDE80F
:202AE000104000F089BF00BF96020020FC0000200AB90020704708B508461146FEF7F2FADE
:202B0000002008BD0FB400B583B004AB53F8041B04481A46019300F025F803B05DF804EBC8
:202B200004B070470C010020102970B50C46054602D80AE0102C0BD92B6810220849686838
:202B40009847103C0028F5D070BD08460029FBD022462B6868680249BDE87040184700BF65
:202B600004DD00002DE9F04F834688468FB001924FF0000998F80030002B00F0E380252BE0
:202B800008BF45461DD0444603E0252B00F045812C466378651C002BF7D1454500F0D280F6
:202BA000C8EB050641463246DBF80030DBF804009847002840F03D826378B144002B00F09D
:202BC000C1806B7805F10108002B00F0BB800025A3F12002102A1BD8DFE802F0171A1A145C
:202BE0001A1A1A1A1A1A1A111A0E1A1A090045F0100518F8013FEBE745F00105F9E745F0ED
:202C00000605F6E745F00805F3E745F00205F0E7A3F13102082A00F2D580002404EB8404C2
:202C200003EB440418F8013F303CA3F13002092AF4D92E2B00F0CE804FF0FF366C2B00F04A
:202C4000E280682B00F04481782B00F28180DFE813F079007F007F007F007F007F007F00F7
:202C60007F007F007F007F007F007F007F007F007F007F007F007F007F007F007F007F0064
:202C80007F007F007F007F007F007F007F007F007F007F007F007F007F007F00E2027F00DF
:202CA0007F007F007F007F007F007F007F007F007F007F007F007F007F007F007F007F0024
:202CC0007F007F007F007F007F007F007F007F007F007F00DF027F007F007F00DC02D902E7
:202CE000D6027F007F007F007F007F007F007F007F007F007F007F007F007F007F007F008B
:202D00007F00D3027F007F007F007F007F007F007F007F00D0027F00CD02CA02C702C402EC
:202D2000C1027F00CA027F007F007F007F00BE02BB027D007F007F00B8027F00B5027F0022
:202D40007F00B20248460FB0BDE8F08F45F4407505F4E063B3F5806F08F1010800F06E812D
:202D60005FD9B3F5C06F00F0A181B3F5E06F00F09681B3F5A06F7FF4FDAE019A012C13681C
:202D800088BF04F1FF3402F104028DF8203098BF0024EB07019200F1F38121465846FFF796
:202DA000C3FE002840F045810122DBF8003008A9DBF8040009EB02059847002840F039819A
:202DC000254497E12A2B00F08D802E2B4FF000047FF432AF98F8013008F10101A3F130024E
:202DE000092A00F28D808846002606EB860603EB460618F8013F303EA3F13002092AF4D972
:202E00006C2B7FF41EAF98F801306C2B00F05A8108F1010845F0600516E745457FF4C0AEB4
:202E2000CFE6B3F5807F70D0B3F5407F7FF4A2AE0198B24B15F4804FB14F18BF1F460346D9
:202E40000168043301930A460023002900F0AB810DF1330E7046110941EA03714FEA131C70
:202E600002F00F0663460A46B95D00F8011D52EA0301F0D1BEEB000600F097810336B4423F
:202E80004FF078034FF0300200F8013C00F8022C4FF023038CBFA41B0024EA0700F8033CF1
:202EA000A0F1030700F1BA8121465846FFF73CFE002840F0BE803946DBF800303246DBF8B3
:202EC00004009847002840F0B48009EB060511E198F80130682B00F0B58108F1010845F0E1
:202EE0004005B1E6019A08F10108134614680433002C0193B8BF45F0010598F8003098E69D
:202F00002A2B00F0A681884696E6002EABBF25F0100501230596059315F40053049305F0FA
:202F2000E00300F0F580402B00F0A88200F29B81002B00F06182202B40F08A82019991F90D
:202F400000200431D3170191002A73F10001C0F25F82CDE902230023069305F4C053B3F533
:202F6000805F00F0F080B3F5C05F00F0CC81B3F5006F00F0ED810DF1360A002741F60803F2
:202F8000059941F208028F4203EA050380F08E819342A1EB070600F0518241F608029342CA
:202FA00007EB060100F08D8100231A460293049B83B1069B002B40F0928105F00603022BF5
:202FC00000F053824F48062B08BF0246029B08BF01230293029B0B449C428CBFE41A002401
:202FE00015F00103049304D1E80640F11D8226441C46029838B11146DBF800300246DBF8DA
:2030000004009847A8B9102E07EB090540F2C381B14603E0B9F1100F40F2BF81DBF80030A0
:2030200010223949DBF804009847A9F110090028F0D04FF0FF300FB0BDE8F08F019A134646
:20304000D2F800A004330193BAF1000F00F0E8819AF8007037B1574617F8013F002BFBD15B
:20306000CAEB0707002E02DBB74228BF3746BC428CBFE41B0024E9072BD421465846FFF7CF
:2030800053FD0028D5D15146DBF800303A46DBF8040098470028CCD107EB09052AE0019AD8
:2030A000136804320192C3F8009063E5DBF8003001221649DBF8040098470028B9D109F152
:2030C000010957E598F8023045F0800508F10208BAE55146DBF800303A46DBF804009847BC
:2030E0000028A6D12146584607EB0905FFF71CFD00289ED104EB05093CE500BF24DD0000A8
:2031000038DD000058DD000014DD000064DD0000402B00F0AE8100F2B680002B00F0618184
:20312000202B40F0E080049A019906920A780023CDE902230B460433019305F4C053B3F594
:20314000805F7FF410AFDDE90223134300F09D810DF1360307939A46DDE90223D00840EA71
:203160004370DE0802F007013346024630310AF8011D52EA0301F1D1079BCAEB0307FDE634
:20318000DBF80030012208A9DBF80400984700287FF44FAF2146584609F10105FFF7C4FC4E
:2031A0000028A7D045E70DF13300302300F8013C0426013863E645F4C855C9E545F410652D
:2031C000C6E545F48065C3E545F48855C0E545F4E065BDE545F48135BAE545F40075B7E5CB
:2031E00045F40245B4E545F42455B1E545F4A065AEE545F4C135ABE545F4B245A8E545F4E8
:20320000A135A5E545F48445A2E545F442459FE545F4E1359CE545F4C06599E53946DBF883
:2032200000303246DBF80400984700287FF401AF2146584609EB0605FFF776FC00283FF41E
:2032400059AFF6E698F8023045F0200508F10208FAE4019998F802300A4604320E680192A2
:2032600008F10208EAE4602B00F0C680802B40F0EF80019B073323F0070303F108020192EE
:20328000D3E9002360E6602B00F0AB80802B2AD1049B0693019B073323F0070303F1080294
:2032A0000192D3E90023CDE9022356E6934200F0CD8041F608020026934207EB06017FF4CB
:2032C00073AEDDE9022313433FF46EAE744B15F4804F744A18BF1A460223029367E6012386
:2032E0000293714A76E605F4C053B3F5805F00F0D080B3F5C05F40F0AE8000230022CDE92F
:20330000022300230693694B15F4804FDDE90201674E024618BF1E460B46134300F0B58073
:203320000DF1360307939A4602460B46110941EA03711F0902F00F003B460A46315C0AF801
:20334000011D52EA0301F1D1079BCAEB030715E6DDE9026732463B46134300F096800DF16F
:2033600036039A460793304639460A2200230AF015F83032304639460AF8012D00230A2279
:203380000AF00CF806460F4656EA0703EBD1079BCAEB0307F2E556B1B1464A46DBF80030BF
:2033A0004449DBF80400984700287FF442AE3A46029F51462F44DBF80030DBF804003D46B7
:2033C000984700287FF435AE049B3544002B3FF491AE21465846FFF7A7FB00283FF48AAEAB
:2033E00027E6019A136804321946049B01920022CDE902120693B0E501990B460A68043335
:203400000193002A4FEAE27373F10001BFF6A1AD524263EB4303CDE90223012306939CE5B7
:20342000DFF898A006271DE6214658460592FFF77BFB059A00283FF4DCADFAE5002E08BFEE
:203440000126002302931A46B919B0E50126F8E7002200237DE5002306931F4600220023B3
:20346000CDE902230DF1360A88E50123124A0293B0E5049A019906920A8858E60199B1F938
:2034800000200431D31701915EE500270DF1360A74E500230022CDE902230023069352E646
:2034A0004CDD000050DD0000FCD9000024DD000038DD000014DD000054DD00005CDD000070
:2034C00010B50446006830B1002100F095FA54F8040F0028F8D110BDF0B5038883B0054629
:2034E0005BB14A2B04D188291BD0012003B0F0BD00230380032003B0F0BD194800F008FCDB
:20350000044630B1A168201D00F080F92468002CF8D1144B01221A704A2301202B8003B058
:20352000F0BD0F48019200F0F3FB04460028F3D0019A031D9A4205D02468231D002CEBD0C2
:203540009A42F9D12146064800F036FC064E6269A369376832600BB1E06998473760DBE755
:20356000D8070020B7240020E407002010B5064B002406481C7000F0C7FB2146BDE8104024
:20358000034800F039BA00BFB7240020D80700201401002070B504460D48049D0078A2612F
:2035A000E361656130B9A1600A482146BDE8704000F0B0BB084D094B2E68201D2B6000F0B7
:2035C00025F92E602146BDE87040024800F0A2BBB7240020D8070020E407002014010020B2
:2035E00010B5044C82B024680094FFF7D3FF02B010BD00BFE407002070B5094B04461B78FD
:203600003BB1084D084B2E6804302B6000F008F92E602146BDE87040044800F07BBB00BF55
:20362000B7240020E407002014010020D807002070B5094B04461B783BB1084D084B2E68D0
:2036400004302B6000F0F6F82E602146BDE87040044800F05FBB00BFB7240020E407002068
:2036600014010020D807002010B50A4B04461B783BB9C36003612146BDE81040064800F00A
:203680009BBB043000F0FCF82146BDE81040024800F092BBB7240020D8070020704700BF69
:2036A00010B50E4C2368B3B1FDF794FB226892E80A0092680B44191A4AB1146853689268C3
:2036C00023441B1A994228BF1946002AF5D1044B0144196010BD024A136010BDDC070020D4
:2036E000E00700202DE9F041038805467BB1592B08D1872912D0822920D059232B800120A8
:20370000BDE8F081002303800320BDE8F081254A0120136059232B80BDE8F081214F396863
:203720000029EAD0CB689A4203D024E0CB689A4220D189680029F9D13960DEE7194F4FF0D7
:2037400000083C68002CD8D0002604E0A3682646002BD2D01C46204600F062FA0028F5D09A
:2037600022468821E06800F0E3F978B10E4800F00BFAEBE739608B68002BBED0D868824295
:203780000BBF9B6819468B609B68F5E7E060A3682EB1B360C4F80880FFF782FFD1E73B60E8
:2037A000F8E700BFDC0700202401002010B50446104800F0E9F91049E3680A684BB142B1E5
:2037C00094420FD0134601E09C420BD09B68002BFAD10A4BA2601B680C60E360BDE81040CA
:2037E000FFF75EBF054B1B68E360BDE81040FFF757BF00BF24010020DC070020E40700208D
:20380000014800F0C1B900BF2401002010B5044600F0F2F92046BDE81040FFF7C7BF00BF71
:2038200010B5044600F0F0F92046BDE81040FFF7BDBF00BF10B5044600F0ECF92046BDE825
:203840001040FFF7B3BF00BFC068B0FA80F04009704700BF05C81044704700BF024B18688C
:20386000003018BF01207047DC070020024B186808B1024B18687047DC070020E007002052
:2038800010B50F4B04461A68824213D072B19368984208BF134605D043B19A68944201D00C
:2038A0001346F9E7A2689A60FFF7FAFE0023A360E36010BD82681A60FFF7F2FEF6E700BFC1
:2038C000DC0700202DE9F843DFF8A480274DD8F800702E68874247D077B33B4601E0002BB8
:2038E0003BD01B689842FAD133B3837B8946044623B3002383736FB1BC424FF0870106D0EE
:20390000BB7BDB0703D52246384600F033F83F68002FF1D1A3683BB14C4505D02C60002213
:20392000832104F10C009847D8F80000844208D12368C8F800302E60BDE8F8833846844227
:20394000F6D00028F7D003689C4208D0002BF2D01A68944204D01346F8E7BDE8F8830346D7
:2039600022681A602E60E7E73B46BDE7E4070020E807002070B586687EB104460A480223A5
:203980000460A37304F10C000D46B0470238012804D9832D02D00123A37370BD214620466C
:2039A000BDE87040FFF78EBFE407002070B50C4A0C4B146800251D7084B1012601E024689B
:2039C00064B1E37B002BFAD0A673E573204600228221FFF7CFFF2468002CF2D170BD00BFB8
:2039E000E8070020BA240020024B1878421C1A70704700BFBB24002070B50F4D2C688442A5
:203A000006D034B1234600E01BB11B689842FBD170BD0028FCD00346084E04600A4634689D
:203A20000120002198739981184681212B60FFF7A1FF346070BD00BFE8070020E407002064
:203A400070B407480749084A0023084D084C8A2603700B6013602E70237070BC704700BFB1
:203A6000B9240020E8070020E4070020BB240020B82400202DE9F041234D2B780BB1FFF728
:203A800095FF224E3378BBB12148224F0278013B02EB4201890001327C1802F01F02027076
:203AA000A068DBB233707F5CD4F8048098B1812F06D0827BD20705D428781844BDE8F08113
:203AC0000123837342463946FFF754FF337828781844BDE8F081104A146834B9ECE7A37B0B
:203AE000D9070AD42468002CF0D02B78002BF6D0FFF75CFFA37BD907F4D542463946204677
:203B0000FFF738FFEEE700BFBA240020B9240020B8240020EC070020E8070020024A034B31
:203B200010781B7818447047B9240020BA240020F0B40C4D2C78202C11D00B4B0B4E1B784C
:203B4000671C234403F01F0303EB43039B00F418A06062602F70F1540020F0BC7047012041
:203B6000F0BC7047B9240020B8240020EC07002038B5837B034CDB07256801D5FFF7FAFE69
:203B8000256038BDE407002038B1837B013B012B03D8024A01231370C3737047BA24002098
:203BA00007F0DEBE38B5094C049D226822B180E82A002060002038BD024680E82A000846E3
:203BC000226007F0CFFE002038BD00BF6C09002010B5084C206858B1002243688168226054
:203BE0009847236823B1BDE81040186807F0BABE10BD00BF6C09002010B541600446FDF7DE
:203C0000E9F8206010BD00BF90E80C0013440360704700BF10B50446FDF7DCF8206010BDDF
:203C200010B50446FDF7D6F823686268C3F101031844904294BF0020012010BDF8B50488DE
:203C40000546672C0BD0792C04D0CCB1002303800320F8BD85291AD11D4C002323601C4C27
:203C6000264604E00A2814D023687E2B2ADD194800F0D4F8431CF5D167232B800120F8BD56
:203C8000FFF7B2FE144A124B10701C60E7E70120F8BD0F4C114F23680F4A581C0026117861
:203CA00020603A463046FE54FFF742FF0C4B324618688521FFF73CFF0028CED179232B80D1
:203CC0000120F8BD05495A1CC8543260CFE700BF700A0020740A00205F2F0020F009002028
:203CE000E407002008B505490548802200F08EF8BDE8084000210348FFF77EBE7009002025
:203D0000740A00203401002000230360704700BF0068704710B404685CB1A14223D02368F7
:203D20000BB906E0134699420FD01A681C46002AF8D100230B6002680AB910E01A46136869
:203D4000002BFBD1116010BC70475CB10A68226000221A6000230B600268002AEFD1016098
:203D600010BC70470C46226823460260F0E700BF30B4056865B1A94219D02B682C460BB97F
:203D800006E01346994207D01A681C46002AF8D10D60016030BC704744B10A6822600022DF
:203DA0001A6005680D60016030BC70470D462A682B460260F3E700BF10B404685CB18C424F
:203DC00012D023680BB906E01346994205D01A681C46002AF8D110BC70472CB11A68226088
:203DE00000221A6010BC70470A680B460260F7E703682BB100201B680130002BFBD17047D8
:203E00001846704700B10068704700BF0023013A0160027143718371704700BF034680796C
:203E200059791A79091A114207D010B4411C1C680A40205C9A7110BC70474FF0FF307047B2
:203E400008B5064802F00AFE054B00220120FD21187099705A70DA7008BD00BF0549000035
:203E6000F80B002030B414780B7A84F00204A34215D00B891BB94B89B3F57F4F30D01F4DC8
:203E800001222C6801F10803824004F10801296003CBD3B220606160184630BC70474C7ACA
:203EA00053789C42E5D18C7A93789C42E1D1CC7AD3789C42DDD10C7B13799C42D9D14C7B83
:203EC00053799C42D5D18C7B93799C42D1D1D379CA7B9A42CDD1032101FA00F3DBB2DBE793
:203EE0008B89FE2BCBD1054CCB892268022122F8023B01FA00F32260DBB2CDE7840A0020E1
:203F000010B5124C0220A17906F09CFDA379112B09D0062B07D03A2B0FD0BDE81040002120
:203F2000012006F08FBD218D638D01209942A8BF1946BDE8104006F085BD218D012049BABF
:203F400089B2BDE8104006F07DBD00BF6026002010B5084C2378012B01D0002010BD0146B7
:203F60000822A01C09F0AAFB00280CBF2046002010BD00BFF80B002008B50146102006F06B
:203F80006FFD044B00219B6803489847BDE80840FDF776B840DE00009D3F000010B50C46F8
:203FA0001146204601F0A2F8044B1B6813B19B6820469847024B1C6010BD00BF5C110020F9
:203FC000080C00202DE9F041154D00232A469478713234B101330C2BF9D14FF0FF30BDE895
:203FE000F081C3EBC30403EB04142F197970064606F082FCDFF830800A4A98F800301168D0
:20400000C01A2E55B870CC1806F076FC98F800202146821AF81C09F083FBB878BDE8F0814B
:204020000C0C0020040C0020BD2400202DE9F84F074614467ABB884692465C4EFF254FF02B
:20404000FF3936F8063CB3BBB9F1FF3F4BD00134022C06F1B806F4D1B9F1FF3F00F0A3806F
:20406000B82000FB09F4DFF84C910F2009EB0406A6F81280378206F0FFFC0146304606F002
:2040800015F904F1180048444021FFF7B5FD2B4658B2BDE8F88FDFF81C81002645462B8AEF
:2040A000BB4224D00136022E05F1B805F7D1FF2358B2BDE8F88F3046FFF7B2FD002835D08D
:2040C0003B4B26F806AC03F24C51E0B29A7822B11A78824208BF83F802A071338B42F5D110
:2040E000B9F1FF3FB3D1E5B24FFA85F9AFE76B8A002BD7D00F2006F0BFFC0146284606F00E
:20410000DBF80028CED0F5B228462146FFF75AFF002813DB0028CADDB82303FB06862B4680
:20412000B28A1044B08258B2BDE8F88FB9F1FF3F8DD136F8063C002B89D1D4E74FF0000B47
:204140005F46D946DFF864A03AF8063CF3B1BE421CD05046FFF764FDC0B1B8235FFA87FEA5
:2041600003FB0E82124BA2F8129003F24C504FF0000C9A7832B11A78724504BF83F802902E
:204180000CF1010C71339842F3D1E3440137022F0AF1B80AD8D1BBF1000F88D021462846F5
:2041A000FFF710FFB6E72B4682E700BFA00A00200C0C0020880A00202DE9F04715090F2D69
:2041C00006469A4602F00F042CD00F2C36D0A046A9466719D5BB0F2F03DD5CB9E5B9BDE816
:2041E000F087C7F1100206EB0900002109F072FB002CF3D0DFF87490C8F11000D9F8007029
:2042000030443946224609F08BFA022C20D03C44C9F80040BDE8F08751463046BDE8F04721
:2042200001F0B4B90F2C4FF0100918D04A464D46A046A718304609F073FACCE74FF01008F7
:20424000A94605F110074446002DD3D02A46F1E70A2DDCD8FF22FE23F2723373D7E74D4638
:20426000C8464C4620272A46E4E700BF840A00202DE9F04F0F2089B0DFF81083B84D06F08D
:20428000FBFB4FF0000A05F0CFFF88F800A085F800A006F01DFBB34E3060042006F0DAFB51
:2042A0003368B1491C7800B25A78086004F0F801C02942EA042278D0E02965D129789F7882
:2042C00093F80490D878C2F30A044B1D40EA072021464A462B70FFF7A9FE411C074661D0E9
:2042E000A24AB82303FB0023D346CDF800A0B3F814A00123A24534BF4FF0000A4FF0010A68
:20430000019306F0F9FA2B78954D83424AD806F0F3FA2B7898F80080C51A08EBC909944A9C
:20432000A944B9F57A7F15603CD8BBF1000F06D031680BEB080019442A4609F0F1F9002C5C
:2043400000F0DD80009B4BB188497BB2B82000FB031308EB050292B29A821A84BAF1000FE0
:2043600040F01881019BEBB9824B45441D80824C236823B1FFF7C4FD23685B68984702F03E
:2043800087FB09B0BDE8F08F57465446DFF8F8B1CDF800A02A78995C01F0E00060284AD098
:2043A00041291CD009B0BDE8F08F29789F78D878C2F30A040B1D40EA0720524621462B70EC
:2043C000FFF734FE07460130ECD0684AB82303FB072202F1220B012233680092DAE75946F7
:2043E000501CC0B2034403F12000D3F800A0D3F80490D3F808C0D3F80CE010338342C1F8AF
:2044000000A0C1F80490C1F808C0C1F80CE001F11001EAD118685B6808604B6098F80030B5
:204420002932283388F80030009B4FF0000A2A70D146019365E7981890F801A0023213443D
:20444000DFF84C914FFA8AF2002AC9F80030B8BF01330192B8BFC9F80030CA065AD501F032
:20446000080303F0FF00002B40F0C781D9F800301A461B78C3F3830343F060038BF8003023
:2044800012F801EBABF802004FEA9E0303F0300343EA8E13C9F800208BF8013001F0040326
:2044A00003F0FF0202923BB9D9F8003013F8012B8BF80620C9F8003011F0030100F0A28097
:2044C0002E4B5B5C8BF807301AF0400FCAF3011300F07681019A002AC0F2B1810021002BEC
:2044E00000F09980264A1078012800F0D081254A00239A4699461360009B019301E7019BDA
:20450000002B3FF431AFBAF1000F3FF44BAF194B1C802CE70B0700F17981D9F80030184607
:2045200033F8012F9B78ABF801208BF8033010F804EB9BF801204FEA9E0303F0300C02F0ED
:204540000F024CEA8E1E03F00F0343F060034EEA0202C9F800008BF800308BF801209DE7F5
:20456000BD240020040C0020800A0020880A0020581100204C2600205C11002098DD000091
:20458000F80B00207C0A002060260020BC240020840A00204FFA87FAB82101FB0AF1DFF88D
:2045A00038B3C4480BEB01063146328CB4822231C14E09F0B5F8BF4B06F24C5916F8012CB2
:2045C00022B116F8031C8A4500F049817136B145F4D1B8225FFA8AFA02FB0AB3B74A00215D
:2045E00008465982FFB202F24C5193781BB11378BB4208BF907071329142F6D1019B002B26
:2046000085D1B1E6D9F8003013F8012B8BF80720C9F8003058E719460BF108020392A84AAF
:204620000F20D25C0591049206F026FA049A034605990398FFF7C0FD0AF0080303F0FF0110
:204640000AF00302002B37D01AF0040F0FD19D49531E0988012BADF81C1040F243819A496E
:2046600000238A5C0BF1180007A9FFF7A5FD98F8002002F1280388F80030029B002B41D17D
:20468000D9F800303268DFF854929B1A2B70002C00F0A480A4F128031A128BF805308BF80B
:2046A00004209BF80630112B00F0CF80009B4FF0000AD146019324E61AF0040F00F0D98093
:2046C000019B002BC0F2EE80DFF814A29AF80030012B7FF40CAF9AF801308B427FF407AF91
:2046E00077497A4B8A5C10200192C3F800A006F0C3F9019A03460AF102010BF11800FFF793
:204700005BFDB4E7D9F80030197801F0F801F029B8D111218BF80610187800F0F301F03920
:2047200000F00400C0B20329C0D8DFE801F03D332202597802330909A1F5756189B2090239
:2047400041F0F001ABF8281013F8011C01F00F01A1F5756189B2090241F0F001ABF82A1082
:20476000C9F80030002800F0C680303288F8002088E759780433A1F5805189B2090241F093
:20478000F001ABF8281033F8021CC9F80030ABF82A10E7E7B3F801100433ABF8281013F88F
:2047A000011CA1F58051D5E7B3F801100533ABF8281033F8021CC9F80030ABF82A10D1E71B
:2047C000434A0F20D25C039206F056F9039A034640490BF10800FFF7EFFC2DE706F08CF833
:2047E00099F8002098F80030801A0344283B1A128BF805308BF8042053E7002360228BF817
:2048000000208BF80130ABF8023047E6D9F80020602310468BF8003010F8013B03324FEA93
:20482000930E0EF0300E03F00F034EEA03038BF801300388C9F80020ABF802302EE63168B6
:204840002A780A449178090949E6BBF804304FF0000AABF82C30009BD146019351E516F865
:20486000020C314603EBC000009308F059FF009BACE6174B102013F802A006F0FDF8524633
:20488000034614490BF11800FFF796FCEFE6507888427FF42CAE0D48911C02600BF10802B8
:2048A0000392BCE631682B780B44997801F00F010AE700BF602600200F0C00200C0C00205B
:2048C000B4DD000094DD0000B0DD00007C0A00209CDD0000A0DD0000880A0020BD240020FA
:2048E000F80B0020D9F8003013F8011B8DF81D10C9F80030B3E633F8021BABF82E10C9F847
:20490000003032E72DE9F04FAE4EDFF8E4B2002387B033708BF80030044606F01FF805F094
:20492000D7FFA94BDFF8CCA21B68CAF800000BB1FFF7E6FA04A80190002C00F093822146BC
:2049400005F0B4FCA14B1B883E2B32D99BF80070DAF80080002302379D4D08F807309D48F8
:2049600008F102032B60FFF7F3FA002800F0078108F103032B6080230293974C6278217813
:20498000130943EA0113DBB2980840EA8313DBB210075FFA83FE5CD16088002859D10807D9
:2049A00040F0F58012F0F00F40F0F1804FF078095EE0894C9BF800C0A646DAF800300CF19F
:2049C0000105EDB241221D441A7004F1200877460FCF474528606960AA60EB600EF1100EDD
:2049E00005F11005F3D1BEE803002860696033780CF1290C28338BF800C033700199102006
:204A000006F02EF8754BDFF8E8911B6898476F4B002837781B889BF80080ACBFC0F17D0523
:204A20006825A3EB0702C8EB0501B8BF15208A4240F3B480C0F1780293FBF2F7029206F08E
:204A400039F801388742C0F2D780002007B0BDE8F08F090703D112F0F00F00F082802A68B6
:204A600020681346106003F804EB2B604FF06009A379112B68D1E37949F00409402B6AD0F0
:204A8000FF2B00F00F82012B68D02A6802F8013B2A602389504A3BB953892BB993891BB9CB
:204AA000D389002B00F034824D48FFF751FA4D4B1860002800F07781417818F807304A4A3F
:204AC00043EA011308F8073045490420FFF7CAF960F03F00C3B20293237E3F49FF2B00F017
:204AE0008E8101F118000391FFF732FA3D4A03991060002800F0BA8118F807204378029875
:204B0000134340F0040E08F807301831019A00205FFA8EF7FFF7A6F938432F685FFA80FE66
:204B2000A3792822112B32702B4900F00E81DAF800309BF80020FF1A991803F802908BF8AF
:204B4000007081F801E059E72A6802F8013BE3792A60402B94D149F002099AE749F00109C5
:204B600097E7296823F03F031343204A0B701288CB1CA1F801202B604FF0680978E7184861
:204B8000FFF7E6F900287FF4F3AE0290F5E62B684FF0700903F801EB2B6069E7DAF80000B8
:204BA000E119404408F0BCFD084B18884044C01B80B205F087FE0198FFF7DEF9012007B08A
:204BC000BDE8F08FBC2400205C1100204C260020840A0020782600206026002000DE0000A2
:204BE000682600207C0A00205826002062260020BD240020040C0020DAF8008099F8007097
:204C0000B64E41463A46002308F104000437336008F0FCFDF9B20E46B14BB2481A88B24B16
:204C2000120A62F03F0288F80020AD4AB3F800E012886D1A017825F007054FEA1E20AB4F77
:204C400088F8012088F803E02A460EF1010E88F80200214408EB0600A3F800E03D6089F859
:204C6000006008F05DFD701980B205F02BFE05F027FF9F4D804600283FF4E7AE0198FFF75D
:204C80007BF9404605F06AFF404605F051FF934B1B68012B3FF4D9AE043B012B7FF6D5AE47
:204CA0008F4B90491B882A681B0A63F01F030D788B49137002983B6809881D4420F0070050
:204CC00005235170ADB2386089F80030B84632E03E68DAF80030B242B8BF16469BF80090A1
:204CE000B8BFC8F8002003EB0900324683F804E008F016FD09EB060080B205F0E3FD05F08E
:204D0000DFFE064600283FF4A0AE0198FFF734F9304605F023FF304605F00AFF6F4A3B68A8
:204D200012681D44012AA2F10403ADB23FF48DAE012B7FF68AAE6A4B61191B884FEAD50E3F
:204D40009D42A3EB0502C3D338E74FF2B002088D030A43EA00239BB223F00F0080B29042D2
:204D600000F0A380498D0A0A42EA012292B202F47F42B2F5704F00F0218103F47F43B3F593
:204D8000704F00F0EB805B4BF0223A7018687B1DC7F801001F46584B30221B88327027F801
:204DA000023B2F60C3E648F2FE03228953499A420FD14B8B6BB98B8B5BB9CB8B4BB9083189
:204DC0004F4A0420FFF74EF8029B0343DBB2029382E6D5F800C0DFF830E10CF110032B605D
:204DE000BEE80F00CCF80410CCF80000CCF80820CCF80C30237E4149FF2B7FF472AE029AF2
:204E00004B7E42F0080E022B5FFA8EFE4A8B00F0AF80002A34D18A8B002A31D1E18B374A1E
:204E200071BB118C31B9518C21B992F82410002900F0CF80218C314A11BB92F82210F9B980
:204E40002F680298394601F8013B52F8233F40F0090EC7F80130137906375FFA8EFE0B7160
:204E60002F605DE6274905F021FA6BE548F2FE030A8B9A4202D14B8B002B5FD0DDF808E024
:204E8000D5F80080DFF884C008F11007BCE80F002F60C8F80000C8F80410C8F80820C8F81C
:204EA0000C303DE649F00309F3E5B1F82AC04FEA1C2242EA0C2292B222F00F0C84457FF465
:204EC00056AFF3233B700A8D4B8D120A1B0A03EB021303F5AA637B70BB1C5BE7080C00201C
:204EE0004C260020BC240020A224002058110020040C0020882600208E2600206026002039
:204F000058260020D4DD00006826002078260020138A002B7FF4C8AD538A002B7FF4C4AD3A
:204F2000938A002B7FF4C0ADD38A002B7FF4BCAD029B43F04003DBB20293CDE58B8B002BBD
:204F40009CD1CB8B002B99D11831019AFEF78AFF029B2F6803435FFA83FEE1E5F2233B70BD
:204F6000238D254A1B0A7B7012883B1D7A8011E7002A85D18A8B002A82D1CA8B002A7FF41A
:204F80004DAF0A8C002A7FF449AF4A8C002A7FF445AF8A8C002A7FF441AF91F82620002AE7
:204FA0007FF43CAF2F6891F82730029A07F8013B42F00B0E5FFA8EFE2F60B1E5F1220F4B83
:204FC0003A701A883B1DA7F80120628D120AFA70E0E62868014601F8013B32F825CF029B6B
:204FE000071D43F00A0E93785FFA8EFEA0F801C02F608B7094E500BF8A2600208826002099
:2050000050B110B5044604F065F9044B2146BDE81040186805F02ABB704700BF440100204E
:2050200008B505F02FF9034B03491868BDE8084005F0C0B94401002001500000F8B50C4A68
:2050400005461E461068079B9DF8182005F03EFA044650B12F686968AA68EB68076041606D
:205060008260C360467404F035F92046F8BD00BF44010020024B0146186805F05BBB00BF32
:205080004401002070B505460C4E306805F0E6F98DB1044630B90EE02146306805F0A0F989
:2050A000044640B110222946204608F007FB0028F2D1204670BD002070BD00BF44010020C5
:2050C000024B0146186805F0AFBA00BF4401002008B5FFF7D7FF30B1034B01461868BDE816
:2050E000084005F027BB08BD4401002070B5054610200E4605F0C0FC0849044605F0DCF85E
:2051000000B170BD32462946204605F027F8324629462046BDE8704004F0ACB8D4DD0000A5
:205120002DE9F84302FB0105099F1646A8424FF000023A609DF820801CD2044699464FEACD
:20514000D80807E04246494608F0B8FA78B13444AC4207D22378A01C002BF3D13C60344405
:20516000AC42F7D33B682BB10120BDE8F8833C60BDE8F8830220BDE8F88300BF2DE9F041B3
:20518000174D82B0009104460E4690461F4601950346202203211348FFF7C2FF01281BD1A3
:2051A0002B68187020682B68D4F804E0A168E268C3F802002868C3F806E0C3F80A10C3F838
:2051C0000E20089B86744361099B80F813800777836102B0BDE8F081002002B0BDE8F0819F
:2051E000CC120020DC250020F8B507460C4D0D4E05F120043560803514F8203CA4F11E0063
:2052000033B114F80E2C3946D20808F057FA28B134602034AC42EFD10020F8BD0120F8BDA8
:20522000DC250020CC12002010B5094C82B0802203468DE81400032120220648FFF770FF76
:2052400010B9206802B010BD002002B010BD00BFD0120020F824002070B4114A114E1346AB
:2052600048F2FE0502F160043260002107E09A7C824209D02033A3424FF001010AD21A7866
:20528000002AF7D0421CF2D15A88AA42F2D119B1336001E033600023184670BC704700BF77
:2052A000F8240020D0120020F0B5114D83B0802203468DE824000446122205210D48FFF707
:2052C0002FFF012811D12B68187020682A686768A668E168C2F802002868C2F80670C2F804
:2052E0000A60C2F80E1003B0F0BD002003B0F0BDC81200207C2500202DE9F0410446254DCE
:2053000082B080208DE821000F4690462346202203212148FFF704FF012837D12B6818707D
:2053200026682B68D4F804E0A168E268C3F802602E68C3F806E0C3F80A10C3F80E2086F8B9
:205340001380D7B93075154B0022FF2101200227B0745F70D872197019735A809A80DA80F9
:205360001A819A72627B18465A73E289DA81FFF79BFF286802B0BDE8F0810023337506F10E
:205380001800394606F05CFE2E68DCE7002002B0BDE8F081D0120020F8240020D4120020A1
:2053A00010B5094C82B0802203468DE81400052112220648FFF7B4FE10B9206802B010BD0D
:2053C000002002B010BD00BFC81200207C250020E8B138B504460E4B0025FF220220012101
:2053E0005870D9721A735D809D80DD801D819D721A70E27B18465A73228ADA81FFF7D0FF2B
:20540000044B186000B105700023237038BD7047D4120020C812002038B5134B134C184635
:20542000236003F1600504E020682030A842206012D20378002BF7D0037D002BF4D1183061
:2054400006F006FE0028EFD02068FFF7C1FF20682030A8422060ECD307F0ACF8BDE8384074
:205460000348FEF7DDB900BFF8240020D01200203C2600202DE9F04F48F2FE090B884B451E
:205480003FD00B78FF2B3CD03E4CDFF8FCC0002322469A4604F16008CCF8004004E0203225
:2054A0004245CCF8002020D21478002CF7D0947C012CF4D154884C45F1D04F1E561C0024DD
:2054C00017F801BF16F8015F04F1080EAB4544D15FFA8EF4802CF3D1A2459CBFA2461346B1
:2054E00020324245CCF80020DED35BB353F8024F59689A68DB68046041608260C360BDE8DF
:20550000F08F204ADFF880C048F2FE05134602F16004CCF80020002104E02033A3424FF03E
:2055200001010DD21A78002AF7D09A7C012AF4D15A88AA42F1D10029D8D0CCF80030D5E7F0
:20554000CCF800300023038043808380C380038143818381C381BDE8F08F04F1080E8BEA74
:2055600005055FFA8EFE6E0015F0800F04F10107F5B2B1D1FCB27445F5D1A2459CBFA246BD
:205580001346ADE7F8240020D01200200B684A688360037AC26083F002030372704700BFD6
:2055A00070B5094EB0684508FDF776F90446FDF773F92402B268A4B22044B0FBF2F302FB76
:2055C0001300284470BD00BFE02400202DE9F041344E82B0FFF724FD06F0DCFD60220021B8
:2055E000314808F077F93046F822002108F072F92E4C2F492F4B4FF0400818224FF4A06541
:2056000020203560B4601A7086F804800870FFF7C7FF48F2FE0E42F2107240F2FF27264C1B
:20562000002501950095F060A4F800E041462B46326120462A466580A580E5803575FFF7DE
:205640009DFD1E4A04F1080310685168012203C3237A294683F0020320462372FFF74CFE6F
:205660004FF480732046E3816580A580E58025816581A5812780FFF717FE4FF4007320463B
:2056800027806580A580E58025816581A581E381FFF70AFE0A480C2102B0BDE8F041FEF7E4
:2056A000B5B800BFE0240020DC250020C0270900D9250020D8250020D412002058260020AA
:2056C0003C260020013A0A44914230B414D20C4625786378023403EB05239BB2184480B231
:2056E000834284BF013080B2A242F1D8CB43134423F00103023319448A4201D030BC704744
:20570000137830BC1B02184480B2834284BF013080B2704730B5134B134D1C782B796A7987
:20572000C4EB0323134483B09BB2ADF80630BDF8063005F108011844202280B2FFF7C2FF71
:20574000BDF8062004F12801294492B2FFF7BAFF18B94FF6FF7003B030BD40BA80B203B0EC
:2057600030BD00BFBE2400206026002002200146F8B5304F304D3A78304E2832AB185B78A3
:205780003070DB0003F1070E4FF0000C704543DC8318EC5C2B44012C12D019D3632C07D1B2
:2057A000BCF1000F41D102F079FBA0B90120F8BD04F0C004802C19D0C02C26D0402C1FD0FC
:2057C000597802310844C1B208464FF0010CDDE70130C1B2F8E73B783278283313441D44B5
:2057E0006B780020134402333370F8BDBCF1000F19D102440221042006F0CEFF0220F8BDF5
:20580000BCF1000FD2D03170D0E7BCF1000F08D12B7EFF2BEDD1C9E7BCF1000F07D1002048
:20582000F8BD3170F4E73170E3E73170BBE73170F5E700BFBE24002060260020C0240020A1
:2058400070B4C278134C0A44D2B2E27083780E0A3344DBB2A37045789E42657000782070C3
:2058600003D90135EDB265708DB1C9B28A420CDA0133DBB2A370074A3BB953780133DBB292
:20588000537013B913780133137070BC704701302070EAE75426002010B5084C0146206840
:2058A0001430FFF7CDFF064A2368507814789178D2781C7558759975DA7510BD582A002036
:2058C000542600203A20FFF725BF00BF08B5FFF77DFE07F04DF807F0A7F90F4B002103F1CB
:2058E000280223F8021F9342FBD10C4B002103F5F07283F8251030339A42FAD1084A094B6F
:205900004FF48061118003F5A07100221A8220339942FBD108BD00BF422C00205C2A002059
:20592000A4240020702C0020F8B5114E3478F4B1104F04F127033D88AB4203DB00233B807A
:205940003370F8BD0C4BA5F128021919121B184607F05CFF03462C1BA4B2A4F12802101202
:2059600000213C8003F8232C03F8240C3170F8BDBE2400204C26002088260020074A0023A9
:2059800032F8021F814203D00133142BF8D17047034A002122F81310704700BF422C002084
:2059A000442C00202DE9F04F042885B02DD0B14ADFF8E4B2DFF8E492DFF8E4A20328DBF894
:2059C0000050C9F80020CAF800202AD0022800F09880052800F0688112F83C3CA2F13C042D
:2059E00003F0F003602B00F0E080A34BA34E0093DFF8B082A24B00221A70009B328088F805
:205A000000201A7005B0BDE8F08F9B4B9B4E9D4800930388002B40F06381994BDFF8848231
:205A2000E9E795F8251001F00F01032900F0ED800229DAD1A2F13C0404F1180301938E4B24
:205A40008E4E00930223042284F8351084F83C300021402384F83D20602284F83E1084F8BE
:205A60003F30338084F834202B7DDFF8288284F830306B7D019F84F83130AB7D84F83230C4
:205A8000EB7D84F833302B7E84F82C306B7E84F82D30AB7E84F82E30EB7E84F82F302B8A80
:205AA00023856B8A638595E80F0087E80F0008F1180108F10800FFF7DDFC95F8253003F0A0
:205AC000100303F0FF02002B40F04B81402388F8362088F8373033886B4A283B15790621F0
:205AE00000221E12084663712671E571A17184F83B2084F83A202287FFF70CFEC043208733
:205B000020E1624C5D4EE2785D4B01325D480021D2B2E27031801970018062B9A278013237
:205B2000D2B2A2703AB962780132D2B2627012B922780132227095F8251001F0FD02052A6E
:205B400000F08980002900F08F80AA8B002A00F0F08295F82620541E85F82640002A40F0E1
:205B6000838095F82720082A00F02B834C1E012C40F22483042A9CBF0324944001F00F0189
:205B800094BFE4B2302401324F1E85F8272085F82640072F68D8DFE817F00901F800110129
:205BA000FF006700FF006700FF002379334E61791B0230885D18854200F3D980207A2831D3
:205BC0000B44FF28338000F0D280314D363A2C4BDFF8D080A1792A6000221A7088F80020DE
:205BE000002940F012810122009388F80020FFF7BDFD0128009B00F05E81C0F0FC800228CA
:205C000040F003811C4B0093A1E0AB8B002B7FF4ECAE194A082300921370184E01F088F86D
:205C20001848009B1A7802F0200303F0FF01002B00F08D82174C002385F825301422038094
:205C400004F1180384F8352001933C233380502384F8343008E795F826200132D2B2782A4F
:205C600085F8262000F08980034ADFF838800092C1E600BF9C260020482A00204C2600208E
:205C8000BE2400206C2C0020E0240020E41200204C2A002060260020582A0020542A002094
:205CA00050260020BF240020A14B1B681B8A002B3FF49BAE9F4BA0481C46A04E0C3A009395
:205CC0000821002303800190C9F80020CAF80020CBF800303380217001F02AF8019898E640
:205CE000934A974C126803F1080149BA002092F814E0A185E085118A303321859BB2508A76
:205D0000A3F128010D124FF0110884F807E0257160853380617184F8068004F118050FCAFF
:205D200085E80F00294604F10800FFF7A3FB854B04F13C0240461A60FFF7ECFCC04380B2D1
:205D400058B1E08500236022227063706380009A0023137005B0BDE8F08F4FF6FF73E385B0
:205D6000F0E7002388F8373088F83630B3E6714BDFF8DC810093744B3DE6002285F825207A
:205D80006C4ADFF8CC81009235E66A4B6C4C009304F11803019355E6664B694C009304F1AF
:205DA00018030193112384F835304EE7614B644C009304F118030193122143E65D4A04232D
:205DC00001901370009200F0B3FF01980388DAF80020C9F80020002B00F0D081AB8B002BB7
:205DE00000F0CC81564C3C3318223380A31884F8352001932BE71A7802F128012144487863
:205E0000083202EBC00229601A7000934F4B18460193FFF709FA009B002800F009822A689E
:205E2000494910783C2800F27C81DFE810F06F017A017A017A017A017A0104017A017A015C
:205E40007A017A017A017A017A017A017A017A01B5007A017A017A017A017A017A017A0158
:205E60007A017A017A017A017A017A017A017A017A017A017A017A017A017A017A017A0172
:205E80007A017A01930044007A017A017A017A017A017A017A017A017A017A017A017A0171
:205EA0007A01620044004700FFF734FC4FF6FF729042009B7BD01F4A00929CE598F80000DA
:205EC000870740F18F81470600F12B81204A40F04000107002930091FFF748FC012800998D
:205EE000029BE8D0C0F0838102283FF48BAE2A6897E73A200093FFF70DFC4FF6FF7290427F
:205F0000009BD8D11A7800932832A05C00F0ACFD009B1A782832A1184978A05C06F018FC22
:205F20000128009BC7D03288002AC4D06AE600BF502A0020482A00206C2C00204C26002009
:205F400060260020542A0020BE24002078260020BF24002098F8000000F0040E0EF0FF07A4
:205F60000097BEF1000F40F0DC8093F800C0A64F0CF12802224492F803E040F0040038702A
:205F8000BEF1000F40F0318250780CF1080C0CEBC00008702A6044E70093FFF7C5FCE28DEA
:205FA0001120A071994D009B002A7FF47DAF6F8D002F80D0964BDFF87482954DC8F800305A
:205FC000238D05F5A074009305E02035A542C8F8005080F07B812B8A002BF6D0BB42F4D16B
:205FE0006B8A10228B4813B100998B42EDD12B682BB96B681BB9AB680BB9EB6823B1294634
:2060000007F05CFB0028E0D1834933880C468348834A303B009133800221002303800190DF
:20602000C9F80020CAF800202170CBF8003000F07FFE0198EDE40093FFF776FC06221046C9
:20604000A271FFF767FB4FF6FF7290426F49009B7FF431AF4F8D002F3FF42DAF0A8D009264
:20606000002A3FF428AF03966E4D1E4604E06E4B30359D4200F0378195F825300293002B09
:20608000F5D02A8ABA42F2D16A8A009B9A42EED1102229465F4807F011FB0028E7D194F8E7
:2060A00035105D4A4F07334600921070039ECBF80050564A00F1FD8392F8340032880009CD
:2060C000283AA2EB8000029A80B202F00F02022A308000F09684012A00F08C8410B98F0710
:2060E00000F05A82B4F82CC0B5F814E04748F44500F04C82880705D5012A3FF45DAE022A17
:2061000000F06682102384F835309EE598F800000293C307009104D43B4B40F00100187079
:20612000DAE6121B0121042006F036FB3A4B00930DE601F00F0103297FF496AD364A08236C
:2061400001900092137000F0F3FD019869E502F0100303F0FF0403B32C4C042285F82520C1
:206160004FF0010E112304F1180285F82710A5F81CE00180019284F8353066E5009B1B78D3
:2061800098077FF54AAC214C10223C2384F8352004F118020192338059E503881F494BB1A5
:2061A000D70740F19980AC83EA8B934288BF02800388AB83002285F8272008E6052A7FF446
:2061C000D9AC154A002385F82530104C80231370009200F0ADFD142384F8353004F1180310
:2061E000019332E5084A40F00200107072E6187800F12802224492F801E0083000EBCE002B
:206200002A6018700DE600BFBF24002060260020702C002068260020482A00206C2C00205D
:20622000902600205C2A00203C2C0020502A002001980093FFF7B4F8009B00287FF4EFAD20
:20624000217E019AFF29A2F1180200F0D78048F2FE05108BA84200F0D1801089A84200F072
:20626000D38080B9518971B9918961B9D18951B9128A42B9618A8A4A29B9918A19B9D28A75
:20628000002A3FF418AE218B854A81B9518B71B9918B61B9D18B51B9118C41B9518C31B926
:2062A000918C21B9D28CB2F5807F3FF404AE3388B3F5A06F00F2E580E379794A012B40F2B8
:2062C000D880013BD371774B009340E500220421012006F061FA95E4AA8B002A3FF464AF95
:2062E00013460A8066E794F83520334602F03F02022A039E54D06B4A009294F83510684A26
:2063000049073FF578AB92F832C092F8335092F831E092F82F0092F82E1082F82EC092F83F
:2063200030C092F82D30013082F82F5082F82DE092F82C504FF0140EC0B282F82CC082F81C
:2063400035E04FF03C0C4FF0500E82F8330082F8321082F8313082F83050A6F800C082F8EE
:2063600034E060B90131C9B282F8321039B90133DBB282F8313013B96B1C82F83030228D1D
:20638000638D494D019F6285238595E80F0087E80F0005F110012846FFF76CF8FFF79BBB23
:2063A0004249002201E0142AA5D031F812000132B842F8D1002529463D4A05E001310A2906
:2063C00002F1300200F0248392F82500002873D00728F3D1002D00F0208392F826E095F817
:2063E0002600864588BF1546E8E70CF12A020099042006F0D1F92B4B0093A8E448F2FE02C6
:20640000208990427FF457AD2089254A78B9508968B9908958B9D08948B9108A38B9508A5E
:2064200028B9908A18B9D28A002A3FF444AD208B1B4A80B9508B70B9908B60B9D08B50B901
:20644000108C40B9508C30B9908C20B9D28CB2F5807F3FF430ADFF293FF42DAD15480193B3
:20646000FEF7C2FE0246A0B10E4B0093019BFFF7C2BA00221146032006F08EF9094B0093D4
:2064800065E44FF4A0620021022006F085F9FFF7B9BB0221012006F07FF9024B009356E481
:2064A00060260020482A002068260020442C00205C2A002078260020B24B302505FB01357A
:2064C000B14BBDF8001093F800E058786982AF4A9978DB782F8294F82C7085F818E068764C
:2064E00094F82DE0A976EB760FCA85E80F0094F82E100323042201202F75002785F823206C
:2065000085F815E0A97585F8263085F8243085F82500CBF8005085F8227085F82770A88344
:2065200094F82F30EB75FFF7B7F994F8342002F0F003502B15D91209053A3B46920007E0E8
:20654000022811D097F83D1059B10B44934208DAE11891F83C000F4618B10128F0D101334A
:20656000F4E78B4B009327E491F83D000428E9D191F83E2091F83F30854943EA0223402BB6
:2065800028BF40230091EB832B8415E4B0F82EE0E88A86457FF4AEADC90601D5A98BD9B9DE
:2065A000013A072A3FF627AA01A151F822F000BFC366000069660000A16700004167000005
:2065C000E3680000C9680000056100003166000041F00201FFF736BA05F118000293FFF78F
:2065E0002FF96C4A94F8300092F800E06A498645029B00F0878195F82520029202F00F021B
:20660000013A072A3FF6F7A901A151F822F000BF8768000053660000A16700004167000025
:20662000E3680000C96800000561000031660000009A1178564AC9077FF5DDA9002185F8B6
:20664000251010210193117000F072FB019BFFF7D2B9009A1278D00706D594F835204E49F7
:2066600002F03F02122A0CD00293009B20221A7000F05EFBDBF80020002182F82510029B2A
:206680003BE691F8342002F0F001502933D91209053A009F92000021601890F83CE0844602
:2066A000BEF1000F0BD0BEF1010F47D0BEF1020F10D09CF83D0010B101449142ECDB0097C3
:2066C00019E094F8352002F03F02022A7FF493A9FFF772BB90F83DE0BEF1040FE9D190F806
:2066E0003E1090F83F20009742EA0122402A28BF4022EA832A8494F82C1094F82D2094F884
:206700002E00297594F82F106A750322A875E97585F8252001200193FFF7BEF8019B002282
:206720001E481A70009B4221AA83028001903280197000F0FDFA0198FFF773BA0131BCE778
:20674000308818B10293FFF7A7F8029B94F8352012F0010200F08C80009B1B78DF0740F1CA
:2067600083800023072285F8252085F82630AB830120FFF791F8009A1023137000F0D8FA55
:20678000C0E400BF5C2A0020E412002068260020482A002054260020602600206C2C0020A2
:2067A00094F83520D10722D50299CF061FD4AA8B002A7FF420A93088013080B2FFF76CF8B6
:2067C00000983188037843F010020270944A11B143F01203137000F0ABFA012108220023C7
:2067E000A98385F8252085F82730FFF7DBBA900610D5628FD9F8001052BA94F83A0094F8A1
:206800003BE092B20A4431884EEA0020C9F800200A1A3280308858B1029AD10608D400995A
:2068200001930A7842F002020A70FFF735F8019B94F8360094F83720298C02EB002292B226
:206840008A4202D8002A18BF1146009AE983127892073FF4D0A8734800230380019000F084
:2068600067FA0198FFF7DDB9062385F825307FE700990978C80740F1A7800521AA8385F820
:206880002510FFF7B8B8009A1278D7077FF519AF032300993088402285F825300023AB8323
:2068A0000A705F4B0028D6D042221A70FEF7F4FFD1E701935A4B202285F825001A7000F0C1
:2068C00037FA019BFFF797B8009A1278D1077FF592A80721002285F8251085F82620FFF747
:2068E0008AB83088DFF84091002873D194F83520D2077FF580A80722002385F8252085F8A9
:20690000263035E791F8310092F801C084457FF472AE91F8320007469078B8427FF46BAE0E
